{"abi":[{"inputs":[{"internalType":"uint256","name":"minimum","type":"uint256"},{"internalType":"address","name":"creator","type":"address"}],"stateMutability":"nonpayable","type":"constructor"},{"inputs":[{"internalType":"uint256","name":"index","type":"uint256"}],"name":"approveRequest","outputs":[],"stateMutability":"nonpayable","type":"function"},{"inputs":[{"internalType":"address","name":"","type":"address"}],"name":"approvers","outputs":[{"internalType":"bool","name":"","type":"bool"}],"stateMutability":"view","type":"function"},{"inputs":[],"name":"approversCount","outputs":[{"internalType":"uint256","name":"","type":"uint256"}],"stateMutability":"view","type":"function"},{"inputs":[],"name":"contribute","outputs":[],"stateMutability":"payable","type":"function"},{"inputs":[{"internalType":"string","name":"description","type":"string"},{"internalType":"uint256","name":"value","type":"uint256"},{"internalType":"address","name":"recipient","type":"address"}],"name":"createRequest","outputs":[],"stateMutability":"nonpayable","type":"function"},{"inputs":[{"internalType":"uint256","name":"index","type":"uint256"}],"name":"finalizeRequest","outputs":[],"stateMutability":"nonpayable","type":"function"},{"inputs":[],"name":"getRequestsCount","outputs":[{"internalType":"uint256","name":"","type":"uint256"}],"stateMutability":"view","type":"function"},{"inputs":[],"name":"getSummary","outputs":[{"internalType":"uint256","name":"","type":"uint256"},{"internalType":"uint256","name":"","type":"uint256"},{"internalType":"uint256","name":"","type":"uint256"},{"internalType":"uint256","name":"","type":"uint256"},{"internalType":"address","name":"","type":"address"}],"stateMutability":"view","type":"function"},{"inputs":[],"name":"manager","outputs":[{"internalType":"address","name":"","type":"address"}],"stateMutability":"view","type":"function"},{"inputs":[],"name":"minimumContribution","outputs":[{"internalType":"uint256","name":"","type":"uint256"}],"stateMutability":"view","type":"function"},{"inputs":[],"name":"numRequests","outputs":[{"internalType":"uint256","name":"","type":"uint256"}],"stateMutability":"view","type":"function"},{"inputs":[{"internalType":"uint256","name":"","type":"uint256"}],"name":"requests","outputs":[{"internalType":"string","name":"description","type":"string"},{"internalType":"uint256","name":"value","type":"uint256"},{"internalType":"address","name":"recipient","type":"address"},{"internalType":"bool","name":"complete","type":"bool"},{"internalType":"uint256","name":"approvalCount","type":"uint256"}],"stateMutability":"view","type":"function"}],"devdoc":{"kind":"dev","methods":{},"version":1},"evm":{"assembly":"    /* \"Campaign.sol\":434:2673  contract Campaign {... */\n  mstore(0x40, 0x80)\n    /* \"Campaign.sol\":951:1067  constructor(uint minimum, address creator) {... */\n  callvalue\n  dup1\n  iszero\n  tag_1\n  jumpi\n  0x00\n  dup1\n  revert\ntag_1:\n  pop\n  mload(0x40)\n  sub(codesize, bytecodeSize)\n  dup1\n  bytecodeSize\n  dup4\n  codecopy\n  dup2\n  dup2\n  add\n  0x40\n  mstore\n  dup2\n  add\n  swap1\n  tag_2\n  swap2\n  swap1\n  tag_3\n  jump\t// in\ntag_2:\n    /* \"Campaign.sol\":1014:1021  creator */\n  dup1\n    /* \"Campaign.sol\":1004:1011  manager */\n  0x01\n  0x00\n    /* \"Campaign.sol\":1004:1021  manager = creator */\n  0x0100\n  exp\n  dup2\n  sload\n  dup2\n  0xffffffffffffffffffffffffffffffffffffffff\n  mul\n  not\n  and\n  swap1\n  dup4\n  0xffffffffffffffffffffffffffffffffffffffff\n  and\n  mul\n  or\n  swap1\n  sstore\n  pop\n    /* \"Campaign.sol\":1053:1060  minimum */\n  dup2\n    /* \"Campaign.sol\":1031:1050  minimumContribution */\n  0x02\n    /* \"Campaign.sol\":1031:1060  minimumContribution = minimum */\n  dup2\n  swap1\n  sstore\n  pop\n    /* \"Campaign.sol\":951:1067  constructor(uint minimum, address creator) {... */\n  pop\n  pop\n    /* \"Campaign.sol\":434:2673  contract Campaign {... */\n  jump(tag_6)\n    /* \"#utility.yul\":88:205   */\ntag_8:\n    /* \"#utility.yul\":197:198   */\n  0x00\n    /* \"#utility.yul\":194:195   */\n  dup1\n    /* \"#utility.yul\":187:199   */\n  revert\n    /* \"#utility.yul\":334:411   */\ntag_10:\n    /* \"#utility.yul\":371:378   */\n  0x00\n    /* \"#utility.yul\":400:405   */\n  dup2\n    /* \"#utility.yul\":389:405   */\n  swap1\n  pop\n    /* \"#utility.yul\":334:411   */\n  swap2\n  swap1\n  pop\n  jump\t// out\n    /* \"#utility.yul\":417:539   */\ntag_11:\n    /* \"#utility.yul\":490:514   */\n  tag_23\n    /* \"#utility.yul\":508:513   */\n  dup2\n    /* \"#utility.yul\":490:514   */\n  tag_10\n  jump\t// in\ntag_23:\n    /* \"#utility.yul\":483:488   */\n  dup2\n    /* \"#utility.yul\":480:515   */\n  eq\n    /* \"#utility.yul\":470:533   */\n  tag_24\n  jumpi\n    /* \"#utility.yul\":529:530   */\n  0x00\n    /* \"#utility.yul\":526:527   */\n  dup1\n    /* \"#utility.yul\":519:531   */\n  revert\n    /* \"#utility.yul\":470:533   */\ntag_24:\n    /* \"#utility.yul\":417:539   */\n  pop\n  jump\t// out\n    /* \"#utility.yul\":545:688   */\ntag_12:\n    /* \"#utility.yul\":602:607   */\n  0x00\n    /* \"#utility.yul\":633:639   */\n  dup2\n    /* \"#utility.yul\":627:640   */\n  mload\n    /* \"#utility.yul\":618:640   */\n  swap1\n  pop\n    /* \"#utility.yul\":649:682   */\n  tag_26\n    /* \"#utility.yul\":676:681   */\n  dup2\n    /* \"#utility.yul\":649:682   */\n  tag_11\n  jump\t// in\ntag_26:\n    /* \"#utility.yul\":545:688   */\n  swap3\n  swap2\n  pop\n  pop\n  jump\t// out\n    /* \"#utility.yul\":694:820   */\ntag_13:\n    /* \"#utility.yul\":731:738   */\n  0x00\n    /* \"#utility.yul\":771:813   */\n  0xffffffffffffffffffffffffffffffffffffffff\n    /* \"#utility.yul\":764:769   */\n  dup3\n    /* \"#utility.yul\":760:814   */\n  and\n    /* \"#utility.yul\":749:814   */\n  swap1\n  pop\n    /* \"#utility.yul\":694:820   */\n  swap2\n  swap1\n  pop\n  jump\t// out\n    /* \"#utility.yul\":826:922   */\ntag_14:\n    /* \"#utility.yul\":863:870   */\n  0x00\n    /* \"#utility.yul\":892:916   */\n  tag_29\n    /* \"#utility.yul\":910:915   */\n  dup3\n    /* \"#utility.yul\":892:916   */\n  tag_13\n  jump\t// in\ntag_29:\n    /* \"#utility.yul\":881:916   */\n  swap1\n  pop\n    /* \"#utility.yul\":826:922   */\n  swap2\n  swap1\n  pop\n  jump\t// out\n    /* \"#utility.yul\":928:1050   */\ntag_15:\n    /* \"#utility.yul\":1001:1025   */\n  tag_31\n    /* \"#utility.yul\":1019:1024   */\n  dup2\n    /* \"#utility.yul\":1001:1025   */\n  tag_14\n  jump\t// in\ntag_31:\n    /* \"#utility.yul\":994:999   */\n  dup2\n    /* \"#utility.yul\":991:1026   */\n  eq\n    /* \"#utility.yul\":981:1044   */\n  tag_32\n  jumpi\n    /* \"#utility.yul\":1040:1041   */\n  0x00\n    /* \"#utility.yul\":1037:1038   */\n  dup1\n    /* \"#utility.yul\":1030:1042   */\n  revert\n    /* \"#utility.yul\":981:1044   */\ntag_32:\n    /* \"#utility.yul\":928:1050   */\n  pop\n  jump\t// out\n    /* \"#utility.yul\":1056:1199   */\ntag_16:\n    /* \"#utility.yul\":1113:1118   */\n  0x00\n    /* \"#utility.yul\":1144:1150   */\n  dup2\n    /* \"#utility.yul\":1138:1151   */\n  mload\n    /* \"#utility.yul\":1129:1151   */\n  swap1\n  pop\n    /* \"#utility.yul\":1160:1193   */\n  tag_34\n    /* \"#utility.yul\":1187:1192   */\n  dup2\n    /* \"#utility.yul\":1160:1193   */\n  tag_15\n  jump\t// in\ntag_34:\n    /* \"#utility.yul\":1056:1199   */\n  swap3\n  swap2\n  pop\n  pop\n  jump\t// out\n    /* \"#utility.yul\":1205:1712   */\ntag_3:\n    /* \"#utility.yul\":1284:1290   */\n  0x00\n    /* \"#utility.yul\":1292:1298   */\n  dup1\n    /* \"#utility.yul\":1341:1343   */\n  0x40\n    /* \"#utility.yul\":1329:1338   */\n  dup4\n    /* \"#utility.yul\":1320:1327   */\n  dup6\n    /* \"#utility.yul\":1316:1339   */\n  sub\n    /* \"#utility.yul\":1312:1344   */\n  slt\n    /* \"#utility.yul\":1309:1428   */\n  iszero\n  tag_36\n  jumpi\n    /* \"#utility.yul\":1347:1426   */\n  tag_37\n  tag_8\n  jump\t// in\ntag_37:\n    /* \"#utility.yul\":1309:1428   */\ntag_36:\n    /* \"#utility.yul\":1467:1468   */\n  0x00\n    /* \"#utility.yul\":1492:1556   */\n  tag_38\n    /* \"#utility.yul\":1548:1555   */\n  dup6\n    /* \"#utility.yul\":1539:1545   */\n  dup3\n    /* \"#utility.yul\":1528:1537   */\n  dup7\n    /* \"#utility.yul\":1524:1546   */\n  add\n    /* \"#utility.yul\":1492:1556   */\n  tag_12\n  jump\t// in\ntag_38:\n    /* \"#utility.yul\":1482:1556   */\n  swap3\n  pop\n    /* \"#utility.yul\":1438:1566   */\n  pop\n    /* \"#utility.yul\":1605:1607   */\n  0x20\n    /* \"#utility.yul\":1631:1695   */\n  tag_39\n    /* \"#utility.yul\":1687:1694   */\n  dup6\n    /* \"#utility.yul\":1678:1684   */\n  dup3\n    /* \"#utility.yul\":1667:1676   */\n  dup7\n    /* \"#utility.yul\":1663:1685   */\n  add\n    /* \"#utility.yul\":1631:1695   */\n  tag_16\n  jump\t// in\ntag_39:\n    /* \"#utility.yul\":1621:1695   */\n  swap2\n  pop\n    /* \"#utility.yul\":1576:1705   */\n  pop\n    /* \"#utility.yul\":1205:1712   */\n  swap3\n  pop\n  swap3\n  swap1\n  pop\n  jump\t// out\n    /* \"Campaign.sol\":434:2673  contract Campaign {... */\ntag_6:\n  dataSize(sub_0)\n  dup1\n  dataOffset(sub_0)\n  0x00\n  codecopy\n  0x00\n  return\nstop\n\nsub_0: assembly {\n        /* \"Campaign.sol\":434:2673  contract Campaign {... */\n      mstore(0x40, 0x80)\n      jumpi(tag_1, lt(calldatasize, 0x04))\n      shr(0xe0, calldataload(0x00))\n      dup1\n      0x82fde093\n      gt\n      tag_14\n      jumpi\n      dup1\n      0x82fde093\n      eq\n      tag_8\n      jumpi\n      dup1\n      0x8a9cfd55\n      eq\n      tag_9\n      jumpi\n      dup1\n      0x937e09b1\n      eq\n      tag_10\n      jumpi\n      dup1\n      0x9fb42b1f\n      eq\n      tag_11\n      jumpi\n      dup1\n      0xd7bb99ba\n      eq\n      tag_12\n      jumpi\n      dup1\n      0xd7d1bbdb\n      eq\n      tag_13\n      jumpi\n      jump(tag_1)\n    tag_14:\n      dup1\n      0x03441006\n      eq\n      tag_2\n      jumpi\n      dup1\n      0x0a144391\n      eq\n      tag_3\n      jumpi\n      dup1\n      0x3410452a\n      eq\n      tag_4\n      jumpi\n      dup1\n      0x4051ddac\n      eq\n      tag_5\n      jumpi\n      dup1\n      0x481c6a75\n      eq\n      tag_6\n      jumpi\n      dup1\n      0x81d12c58\n      eq\n      tag_7\n      jumpi\n    tag_1:\n      0x00\n      dup1\n      revert\n        /* \"Campaign.sol\":2003:2308  function finalizeRequest(uint index) public restricted {... */\n    tag_2:\n      callvalue\n      dup1\n      iszero\n      tag_15\n      jumpi\n      0x00\n      dup1\n      revert\n    tag_15:\n      pop\n      tag_16\n      0x04\n      dup1\n      calldatasize\n      sub\n      dup2\n      add\n      swap1\n      tag_17\n      swap2\n      swap1\n      tag_18\n      jump\t// in\n    tag_17:\n      tag_19\n      jump\t// in\n    tag_16:\n      stop\n        /* \"Campaign.sol\":785:826  mapping(address => bool) public approvers */\n    tag_3:\n      callvalue\n      dup1\n      iszero\n      tag_20\n      jumpi\n      0x00\n      dup1\n      revert\n    tag_20:\n      pop\n      tag_21\n      0x04\n      dup1\n      calldatasize\n      sub\n      dup2\n      add\n      swap1\n      tag_22\n      swap2\n      swap1\n      tag_23\n      jump\t// in\n    tag_22:\n      tag_24\n      jump\t// in\n    tag_21:\n      mload(0x40)\n      tag_25\n      swap2\n      swap1\n      tag_26\n      jump\t// in\n    tag_25:\n      mload(0x40)\n      dup1\n      swap2\n      sub\n      swap1\n      return\n        /* \"Campaign.sol\":2575:2670  function getRequestsCount() public view returns (uint) {... */\n    tag_4:\n      callvalue\n      dup1\n      iszero\n      tag_27\n      jumpi\n      0x00\n      dup1\n      revert\n    tag_27:\n      pop\n      tag_28\n      tag_29\n      jump\t// in\n    tag_28:\n      mload(0x40)\n      tag_30\n      swap2\n      swap1\n      tag_31\n      jump\t// in\n    tag_30:\n      mload(0x40)\n      dup1\n      swap2\n      sub\n      swap1\n      return\n        /* \"Campaign.sol\":2314:2569  function getSummary() public view returns (uint, uint, uint, uint, address) {... */\n    tag_5:\n      callvalue\n      dup1\n      iszero\n      tag_32\n      jumpi\n      0x00\n      dup1\n      revert\n    tag_32:\n      pop\n      tag_33\n      tag_34\n      jump\t// in\n    tag_33:\n      mload(0x40)\n      tag_35\n      swap6\n      swap5\n      swap4\n      swap3\n      swap2\n      swap1\n      tag_36\n      jump\t// in\n    tag_35:\n      mload(0x40)\n      dup1\n      swap2\n      sub\n      swap1\n      return\n        /* \"Campaign.sol\":691:713  address public manager */\n    tag_6:\n      callvalue\n      dup1\n      iszero\n      tag_37\n      jumpi\n      0x00\n      dup1\n      revert\n    tag_37:\n      pop\n      tag_38\n      tag_39\n      jump\t// in\n    tag_38:\n      mload(0x40)\n      tag_40\n      swap2\n      swap1\n      tag_41\n      jump\t// in\n    tag_40:\n      mload(0x40)\n      dup1\n      swap2\n      sub\n      swap1\n      return\n        /* \"Campaign.sol\":660:685  Request[] public requests */\n    tag_7:\n      callvalue\n      dup1\n      iszero\n      tag_42\n      jumpi\n      0x00\n      dup1\n      revert\n    tag_42:\n      pop\n      tag_43\n      0x04\n      dup1\n      calldatasize\n      sub\n      dup2\n      add\n      swap1\n      tag_44\n      swap2\n      swap1\n      tag_18\n      jump\t// in\n    tag_44:\n      tag_45\n      jump\t// in\n    tag_43:\n      mload(0x40)\n      tag_46\n      swap6\n      swap5\n      swap4\n      swap3\n      swap2\n      swap1\n      tag_47\n      jump\t// in\n    tag_46:\n      mload(0x40)\n      dup1\n      swap2\n      sub\n      swap1\n      return\n        /* \"Campaign.sol\":832:858  uint public approversCount */\n    tag_8:\n      callvalue\n      dup1\n      iszero\n      tag_48\n      jumpi\n      0x00\n      dup1\n      revert\n    tag_48:\n      pop\n      tag_49\n      tag_50\n      jump\t// in\n    tag_49:\n      mload(0x40)\n      tag_51\n      swap2\n      swap1\n      tag_31\n      jump\t// in\n    tag_51:\n      mload(0x40)\n      dup1\n      swap2\n      sub\n      swap1\n      return\n        /* \"Campaign.sol\":1328:1719  function createRequest(string memory description, uint value, address recipient) public restricted {... */\n    tag_9:\n      callvalue\n      dup1\n      iszero\n      tag_52\n      jumpi\n      0x00\n      dup1\n      revert\n    tag_52:\n      pop\n      tag_53\n      0x04\n      dup1\n      calldatasize\n      sub\n      dup2\n      add\n      swap1\n      tag_54\n      swap2\n      swap1\n      tag_55\n      jump\t// in\n    tag_54:\n      tag_56\n      jump\t// in\n    tag_53:\n      stop\n        /* \"Campaign.sol\":719:750  uint public minimumContribution */\n    tag_10:\n      callvalue\n      dup1\n      iszero\n      tag_57\n      jumpi\n      0x00\n      dup1\n      revert\n    tag_57:\n      pop\n      tag_58\n      tag_59\n      jump\t// in\n    tag_58:\n      mload(0x40)\n      tag_60\n      swap2\n      swap1\n      tag_31\n      jump\t// in\n    tag_60:\n      mload(0x40)\n      dup1\n      swap2\n      sub\n      swap1\n      return\n        /* \"Campaign.sol\":756:779  uint public numRequests */\n    tag_11:\n      callvalue\n      dup1\n      iszero\n      tag_61\n      jumpi\n      0x00\n      dup1\n      revert\n    tag_61:\n      pop\n      tag_62\n      tag_63\n      jump\t// in\n    tag_62:\n      mload(0x40)\n      tag_64\n      swap2\n      swap1\n      tag_31\n      jump\t// in\n    tag_64:\n      mload(0x40)\n      dup1\n      swap2\n      sub\n      swap1\n      return\n        /* \"Campaign.sol\":1073:1322  function contribute() public payable {... */\n    tag_12:\n      tag_65\n      tag_66\n      jump\t// in\n    tag_65:\n      stop\n        /* \"Campaign.sol\":1725:1997  function approveRequest(uint index) public {... */\n    tag_13:\n      callvalue\n      dup1\n      iszero\n      tag_67\n      jumpi\n      0x00\n      dup1\n      revert\n    tag_67:\n      pop\n      tag_68\n      0x04\n      dup1\n      calldatasize\n      sub\n      dup2\n      add\n      swap1\n      tag_69\n      swap2\n      swap1\n      tag_18\n      jump\t// in\n    tag_69:\n      tag_70\n      jump\t// in\n    tag_68:\n      stop\n        /* \"Campaign.sol\":2003:2308  function finalizeRequest(uint index) public restricted {... */\n    tag_19:\n        /* \"Campaign.sol\":919:926  manager */\n      0x01\n      0x00\n      swap1\n      sload\n      swap1\n      0x0100\n      exp\n      swap1\n      div\n      0xffffffffffffffffffffffffffffffffffffffff\n      and\n        /* \"Campaign.sol\":905:926  msg.sender == manager */\n      0xffffffffffffffffffffffffffffffffffffffff\n      and\n        /* \"Campaign.sol\":905:915  msg.sender */\n      caller\n        /* \"Campaign.sol\":905:926  msg.sender == manager */\n      0xffffffffffffffffffffffffffffffffffffffff\n      and\n      eq\n        /* \"Campaign.sol\":897:927  require(msg.sender == manager) */\n      tag_72\n      jumpi\n      0x00\n      dup1\n      revert\n    tag_72:\n        /* \"Campaign.sol\":2068:2091  Request storage request */\n      0x00\n        /* \"Campaign.sol\":2094:2102  requests */\n      dup1\n        /* \"Campaign.sol\":2103:2108  index */\n      dup3\n        /* \"Campaign.sol\":2094:2109  requests[index] */\n      dup2\n      sload\n      dup2\n      lt\n      tag_74\n      jumpi\n      tag_75\n      tag_76\n      jump\t// in\n    tag_75:\n    tag_74:\n      swap1\n      0x00\n      mstore\n      keccak256(0x00, 0x20)\n      swap1\n      0x05\n      mul\n      add\n        /* \"Campaign.sol\":2068:2109  Request storage request = requests[index] */\n      swap1\n      pop\n        /* \"Campaign.sol\":2168:2169  2 */\n      0x02\n        /* \"Campaign.sol\":2153:2167  approversCount */\n      sload(0x05)\n        /* \"Campaign.sol\":2153:2169  approversCount/2 */\n      tag_78\n      swap2\n      swap1\n      tag_79\n      jump\t// in\n    tag_78:\n        /* \"Campaign.sol\":2128:2135  request */\n      dup2\n        /* \"Campaign.sol\":2128:2149  request.approvalCount */\n      0x03\n      add\n      sload\n        /* \"Campaign.sol\":2128:2170  request.approvalCount > (approversCount/2) */\n      gt\n        /* \"Campaign.sol\":2120:2171  require(request.approvalCount > (approversCount/2)) */\n      tag_80\n      jumpi\n      0x00\n      dup1\n      revert\n    tag_80:\n        /* \"Campaign.sol\":2190:2197  request */\n      dup1\n        /* \"Campaign.sol\":2190:2206  request.complete */\n      0x02\n      add\n      0x14\n      swap1\n      sload\n      swap1\n      0x0100\n      exp\n      swap1\n      div\n      0xff\n      and\n        /* \"Campaign.sol\":2189:2206  !request.complete */\n      iszero\n        /* \"Campaign.sol\":2181:2207  require(!request.complete) */\n      tag_81\n      jumpi\n      0x00\n      dup1\n      revert\n    tag_81:\n        /* \"Campaign.sol\":2226:2233  request */\n      dup1\n        /* \"Campaign.sol\":2226:2243  request.recipient */\n      0x02\n      add\n      0x00\n      swap1\n      sload\n      swap1\n      0x0100\n      exp\n      swap1\n      div\n      0xffffffffffffffffffffffffffffffffffffffff\n      and\n        /* \"Campaign.sol\":2218:2253  payable(request.recipient).transfer */\n      0xffffffffffffffffffffffffffffffffffffffff\n      and\n        /* \"Campaign.sol\":2218:2268  payable(request.recipient).transfer(request.value) */\n      0x08fc\n        /* \"Campaign.sol\":2254:2261  request */\n      dup3\n        /* \"Campaign.sol\":2254:2267  request.value */\n      0x01\n      add\n      sload\n        /* \"Campaign.sol\":2218:2268  payable(request.recipient).transfer(request.value) */\n      swap1\n      dup2\n      iszero\n      mul\n      swap1\n      mload(0x40)\n      0x00\n      mload(0x40)\n      dup1\n      dup4\n      sub\n      dup2\n      dup6\n      dup9\n      dup9\n      call\n      swap4\n      pop\n      pop\n      pop\n      pop\n      iszero\n      dup1\n      iszero\n      tag_83\n      jumpi\n      returndatasize\n      0x00\n      dup1\n      returndatacopy\n      revert(0x00, returndatasize)\n    tag_83:\n      pop\n        /* \"Campaign.sol\":2297:2301  true */\n      0x01\n        /* \"Campaign.sol\":2278:2285  request */\n      dup2\n        /* \"Campaign.sol\":2278:2294  request.complete */\n      0x02\n      add\n      0x14\n        /* \"Campaign.sol\":2278:2301  request.complete = true */\n      0x0100\n      exp\n      dup2\n      sload\n      dup2\n      0xff\n      mul\n      not\n      and\n      swap1\n      dup4\n      iszero\n      iszero\n      mul\n      or\n      swap1\n      sstore\n      pop\n        /* \"Campaign.sol\":2058:2308  {... */\n      pop\n        /* \"Campaign.sol\":2003:2308  function finalizeRequest(uint index) public restricted {... */\n      pop\n      jump\t// out\n        /* \"Campaign.sol\":785:826  mapping(address => bool) public approvers */\n    tag_24:\n      mstore(0x20, 0x04)\n      dup1\n      0x00\n      mstore\n      keccak256(0x00, 0x40)\n      0x00\n      swap2\n      pop\n      sload\n      swap1\n      0x0100\n      exp\n      swap1\n      div\n      0xff\n      and\n      dup2\n      jump\t// out\n        /* \"Campaign.sol\":2575:2670  function getRequestsCount() public view returns (uint) {... */\n    tag_29:\n        /* \"Campaign.sol\":2624:2628  uint */\n      0x00\n        /* \"Campaign.sol\":2648:2656  requests */\n      dup1\n        /* \"Campaign.sol\":2648:2663  requests.length */\n      dup1\n      sload\n      swap1\n      pop\n        /* \"Campaign.sol\":2640:2663  return  requests.length */\n      swap1\n      pop\n        /* \"Campaign.sol\":2575:2670  function getRequestsCount() public view returns (uint) {... */\n      swap1\n      jump\t// out\n        /* \"Campaign.sol\":2314:2569  function getSummary() public view returns (uint, uint, uint, uint, address) {... */\n    tag_34:\n        /* \"Campaign.sol\":2357:2361  uint */\n      0x00\n        /* \"Campaign.sol\":2363:2367  uint */\n      dup1\n        /* \"Campaign.sol\":2369:2373  uint */\n      0x00\n        /* \"Campaign.sol\":2375:2379  uint */\n      dup1\n        /* \"Campaign.sol\":2381:2388  address */\n      0x00\n        /* \"Campaign.sol\":2420:2439  minimumContribution */\n      sload(0x02)\n        /* \"Campaign.sol\":2453:2474  address(this).balance */\n      selfbalance\n        /* \"Campaign.sol\":2488:2496  requests */\n      0x00\n        /* \"Campaign.sol\":2488:2503  requests.length */\n      dup1\n      sload\n      swap1\n      pop\n        /* \"Campaign.sol\":2517:2531  approversCount */\n      sload(0x05)\n        /* \"Campaign.sol\":2545:2552  manager */\n      0x01\n      0x00\n      swap1\n      sload\n      swap1\n      0x0100\n      exp\n      swap1\n      div\n      0xffffffffffffffffffffffffffffffffffffffff\n      and\n        /* \"Campaign.sol\":2400:2562  return(... */\n      swap5\n      pop\n      swap5\n      pop\n      swap5\n      pop\n      swap5\n      pop\n      swap5\n      pop\n        /* \"Campaign.sol\":2314:2569  function getSummary() public view returns (uint, uint, uint, uint, address) {... */\n      swap1\n      swap2\n      swap3\n      swap4\n      swap5\n      jump\t// out\n        /* \"Campaign.sol\":691:713  address public manager */\n    tag_39:\n      0x01\n      0x00\n      swap1\n      sload\n      swap1\n      0x0100\n      exp\n      swap1\n      div\n      0xffffffffffffffffffffffffffffffffffffffff\n      and\n      dup2\n      jump\t// out\n        /* \"Campaign.sol\":660:685  Request[] public requests */\n    tag_45:\n      0x00\n      dup2\n      dup2\n      sload\n      dup2\n      lt\n      tag_86\n      jumpi\n      0x00\n      dup1\n      revert\n    tag_86:\n      swap1\n      0x00\n      mstore\n      keccak256(0x00, 0x20)\n      swap1\n      0x05\n      mul\n      add\n      0x00\n      swap2\n      pop\n      swap1\n      pop\n      dup1\n      0x00\n      add\n      dup1\n      sload\n      tag_88\n      swap1\n      tag_89\n      jump\t// in\n    tag_88:\n      dup1\n      0x1f\n      add\n      0x20\n      dup1\n      swap2\n      div\n      mul\n      0x20\n      add\n      mload(0x40)\n      swap1\n      dup2\n      add\n      0x40\n      mstore\n      dup1\n      swap3\n      swap2\n      swap1\n      dup2\n      dup2\n      mstore\n      0x20\n      add\n      dup3\n      dup1\n      sload\n      tag_90\n      swap1\n      tag_89\n      jump\t// in\n    tag_90:\n      dup1\n      iszero\n      tag_91\n      jumpi\n      dup1\n      0x1f\n      lt\n      tag_92\n      jumpi\n      0x0100\n      dup1\n      dup4\n      sload\n      div\n      mul\n      dup4\n      mstore\n      swap2\n      0x20\n      add\n      swap2\n      jump(tag_91)\n    tag_92:\n      dup3\n      add\n      swap2\n      swap1\n      0x00\n      mstore\n      keccak256(0x00, 0x20)\n      swap1\n    tag_93:\n      dup2\n      sload\n      dup2\n      mstore\n      swap1\n      0x01\n      add\n      swap1\n      0x20\n      add\n      dup1\n      dup4\n      gt\n      tag_93\n      jumpi\n      dup3\n      swap1\n      sub\n      0x1f\n      and\n      dup3\n      add\n      swap2\n    tag_91:\n      pop\n      pop\n      pop\n      pop\n      pop\n      swap1\n      dup1\n      0x01\n      add\n      sload\n      swap1\n      dup1\n      0x02\n      add\n      0x00\n      swap1\n      sload\n      swap1\n      0x0100\n      exp\n      swap1\n      div\n      0xffffffffffffffffffffffffffffffffffffffff\n      and\n      swap1\n      dup1\n      0x02\n      add\n      0x14\n      swap1\n      sload\n      swap1\n      0x0100\n      exp\n      swap1\n      div\n      0xff\n      and\n      swap1\n      dup1\n      0x03\n      add\n      sload\n      swap1\n      pop\n      dup6\n      jump\t// out\n        /* \"Campaign.sol\":832:858  uint public approversCount */\n    tag_50:\n      sload(0x05)\n      dup2\n      jump\t// out\n        /* \"Campaign.sol\":1328:1719  function createRequest(string memory description, uint value, address recipient) public restricted {... */\n    tag_56:\n        /* \"Campaign.sol\":919:926  manager */\n      0x01\n      0x00\n      swap1\n      sload\n      swap1\n      0x0100\n      exp\n      swap1\n      div\n      0xffffffffffffffffffffffffffffffffffffffff\n      and\n        /* \"Campaign.sol\":905:926  msg.sender == manager */\n      0xffffffffffffffffffffffffffffffffffffffff\n      and\n        /* \"Campaign.sol\":905:915  msg.sender */\n      caller\n        /* \"Campaign.sol\":905:926  msg.sender == manager */\n      0xffffffffffffffffffffffffffffffffffffffff\n      and\n      eq\n        /* \"Campaign.sol\":897:927  require(msg.sender == manager) */\n      tag_95\n      jumpi\n      0x00\n      dup1\n      revert\n    tag_95:\n        /* \"Campaign.sol\":1437:1445  requests */\n      0x00\n        /* \"Campaign.sol\":1437:1452  requests.push() */\n      0x01\n      dup2\n      0x01\n      dup2\n      sload\n      add\n      dup1\n      dup3\n      sstore\n      dup1\n      swap2\n      pop\n      pop\n      sub\n      swap1\n      0x00\n      mstore\n      keccak256(0x00, 0x20)\n      swap1\n      pop\n      pop\n        /* \"Campaign.sol\":1462:1488  Request storage newRequest */\n      0x00\n        /* \"Campaign.sol\":1491:1499  requests */\n      dup1\n        /* \"Campaign.sol\":1500:1511  numRequests */\n      0x03\n      0x00\n        /* \"Campaign.sol\":1500:1513  numRequests++ */\n      dup2\n      sload\n      dup1\n      swap3\n      swap2\n      swap1\n      tag_98\n      swap1\n      tag_99\n      jump\t// in\n    tag_98:\n      swap2\n      swap1\n      pop\n      sstore\n        /* \"Campaign.sol\":1491:1514  requests[numRequests++] */\n      dup2\n      sload\n      dup2\n      lt\n      tag_100\n      jumpi\n      tag_101\n      tag_76\n      jump\t// in\n    tag_101:\n    tag_100:\n      swap1\n      0x00\n      mstore\n      keccak256(0x00, 0x20)\n      swap1\n      0x05\n      mul\n      add\n        /* \"Campaign.sol\":1462:1514  Request storage newRequest = requests[numRequests++] */\n      swap1\n      pop\n        /* \"Campaign.sol\":1549:1560  description */\n      dup4\n        /* \"Campaign.sol\":1524:1534  newRequest */\n      dup2\n        /* \"Campaign.sol\":1524:1546  newRequest.description */\n      0x00\n      add\n        /* \"Campaign.sol\":1524:1560  newRequest.description = description */\n      swap1\n      dup1\n      mload\n      swap1\n      0x20\n      add\n      swap1\n      tag_103\n      swap3\n      swap2\n      swap1\n      tag_104\n      jump\t// in\n    tag_103:\n      pop\n        /* \"Campaign.sol\":1589:1594  value */\n      dup3\n        /* \"Campaign.sol\":1570:1580  newRequest */\n      dup2\n        /* \"Campaign.sol\":1570:1586  newRequest.value */\n      0x01\n      add\n        /* \"Campaign.sol\":1570:1594  newRequest.value = value */\n      dup2\n      swap1\n      sstore\n      pop\n        /* \"Campaign.sol\":1627:1636  recipient */\n      dup2\n        /* \"Campaign.sol\":1604:1614  newRequest */\n      dup2\n        /* \"Campaign.sol\":1604:1624  newRequest.recipient */\n      0x02\n      add\n      0x00\n        /* \"Campaign.sol\":1604:1636  newRequest.recipient = recipient */\n      0x0100\n      exp\n      dup2\n      sload\n      dup2\n      0xffffffffffffffffffffffffffffffffffffffff\n      mul\n      not\n      and\n      swap1\n      dup4\n      0xffffffffffffffffffffffffffffffffffffffff\n      and\n      mul\n      or\n      swap1\n      sstore\n      pop\n        /* \"Campaign.sol\":1668:1673  false */\n      0x00\n        /* \"Campaign.sol\":1646:1656  newRequest */\n      dup2\n        /* \"Campaign.sol\":1646:1665  newRequest.complete */\n      0x02\n      add\n      0x14\n        /* \"Campaign.sol\":1646:1673  newRequest.complete = false */\n      0x0100\n      exp\n      dup2\n      sload\n      dup2\n      0xff\n      mul\n      not\n      and\n      swap1\n      dup4\n      iszero\n      iszero\n      mul\n      or\n      swap1\n      sstore\n      pop\n        /* \"Campaign.sol\":1710:1711  0 */\n      0x00\n        /* \"Campaign.sol\":1683:1693  newRequest */\n      dup2\n        /* \"Campaign.sol\":1683:1707  newRequest.approvalCount */\n      0x03\n      add\n        /* \"Campaign.sol\":1683:1711  newRequest.approvalCount = 0 */\n      dup2\n      swap1\n      sstore\n      pop\n        /* \"Campaign.sol\":1427:1719  {... */\n      pop\n        /* \"Campaign.sol\":1328:1719  function createRequest(string memory description, uint value, address recipient) public restricted {... */\n      pop\n      pop\n      pop\n      jump\t// out\n        /* \"Campaign.sol\":719:750  uint public minimumContribution */\n    tag_59:\n      sload(0x02)\n      dup2\n      jump\t// out\n        /* \"Campaign.sol\":756:779  uint public numRequests */\n    tag_63:\n      sload(0x03)\n      dup2\n      jump\t// out\n        /* \"Campaign.sol\":1073:1322  function contribute() public payable {... */\n    tag_66:\n        /* \"Campaign.sol\":1140:1159  minimumContribution */\n      sload(0x02)\n        /* \"Campaign.sol\":1128:1137  msg.value */\n      callvalue\n        /* \"Campaign.sol\":1128:1159  msg.value > minimumContribution */\n      gt\n        /* \"Campaign.sol\":1120:1160  require(msg.value > minimumContribution) */\n      tag_106\n      jumpi\n      0x00\n      dup1\n      revert\n    tag_106:\n        /* \"Campaign.sol\":1173:1182  approvers */\n      0x04\n        /* \"Campaign.sol\":1173:1194  approvers[msg.sender] */\n      0x00\n        /* \"Campaign.sol\":1183:1193  msg.sender */\n      caller\n        /* \"Campaign.sol\":1173:1194  approvers[msg.sender] */\n      0xffffffffffffffffffffffffffffffffffffffff\n      and\n      0xffffffffffffffffffffffffffffffffffffffff\n      and\n      dup2\n      mstore\n      0x20\n      add\n      swap1\n      dup2\n      mstore\n      0x20\n      add\n      0x00\n      keccak256\n      0x00\n      swap1\n      sload\n      swap1\n      0x0100\n      exp\n      swap1\n      div\n      0xff\n      and\n        /* \"Campaign.sol\":1170:1307  if(approvers[msg.sender]){... */\n      tag_108\n      jumpi\n        /* \"Campaign.sol\":1262:1266  true */\n      0x01\n        /* \"Campaign.sol\":1238:1247  approvers */\n      0x04\n        /* \"Campaign.sol\":1238:1259  approvers[msg.sender] */\n      0x00\n        /* \"Campaign.sol\":1248:1258  msg.sender */\n      caller\n        /* \"Campaign.sol\":1238:1259  approvers[msg.sender] */\n      0xffffffffffffffffffffffffffffffffffffffff\n      and\n      0xffffffffffffffffffffffffffffffffffffffff\n      and\n      dup2\n      mstore\n      0x20\n      add\n      swap1\n      dup2\n      mstore\n      0x20\n      add\n      0x00\n      keccak256\n      0x00\n        /* \"Campaign.sol\":1238:1266  approvers[msg.sender] = true */\n      0x0100\n      exp\n      dup2\n      sload\n      dup2\n      0xff\n      mul\n      not\n      and\n      swap1\n      dup4\n      iszero\n      iszero\n      mul\n      or\n      swap1\n      sstore\n      pop\n        /* \"Campaign.sol\":1280:1294  approversCount */\n      0x05\n      0x00\n        /* \"Campaign.sol\":1280:1296  approversCount++ */\n      dup2\n      sload\n      dup1\n      swap3\n      swap2\n      swap1\n      tag_109\n      swap1\n      tag_99\n      jump\t// in\n    tag_109:\n      swap2\n      swap1\n      pop\n      sstore\n      pop\n        /* \"Campaign.sol\":1170:1307  if(approvers[msg.sender]){... */\n    tag_108:\n        /* \"Campaign.sol\":1073:1322  function contribute() public payable {... */\n      jump\t// out\n        /* \"Campaign.sol\":1725:1997  function approveRequest(uint index) public {... */\n    tag_70:\n        /* \"Campaign.sol\":1778:1801  Request storage request */\n      0x00\n        /* \"Campaign.sol\":1804:1812  requests */\n      dup1\n        /* \"Campaign.sol\":1813:1818  index */\n      dup3\n        /* \"Campaign.sol\":1804:1819  requests[index] */\n      dup2\n      sload\n      dup2\n      lt\n      tag_111\n      jumpi\n      tag_112\n      tag_76\n      jump\t// in\n    tag_112:\n    tag_111:\n      swap1\n      0x00\n      mstore\n      keccak256(0x00, 0x20)\n      swap1\n      0x05\n      mul\n      add\n        /* \"Campaign.sol\":1778:1819  Request storage request = requests[index] */\n      swap1\n      pop\n        /* \"Campaign.sol\":1838:1847  approvers */\n      0x04\n        /* \"Campaign.sol\":1838:1859  approvers[msg.sender] */\n      0x00\n        /* \"Campaign.sol\":1848:1858  msg.sender */\n      caller\n        /* \"Campaign.sol\":1838:1859  approvers[msg.sender] */\n      0xffffffffffffffffffffffffffffffffffffffff\n      and\n      0xffffffffffffffffffffffffffffffffffffffff\n      and\n      dup2\n      mstore\n      0x20\n      add\n      swap1\n      dup2\n      mstore\n      0x20\n      add\n      0x00\n      keccak256\n      0x00\n      swap1\n      sload\n      swap1\n      0x0100\n      exp\n      swap1\n      div\n      0xff\n      and\n        /* \"Campaign.sol\":1830:1860  require(approvers[msg.sender]) */\n      tag_114\n      jumpi\n      0x00\n      dup1\n      revert\n    tag_114:\n        /* \"Campaign.sol\":1879:1886  request */\n      dup1\n        /* \"Campaign.sol\":1879:1896  request.approvals */\n      0x04\n      add\n        /* \"Campaign.sol\":1879:1908  request.approvals[msg.sender] */\n      0x00\n        /* \"Campaign.sol\":1897:1907  msg.sender */\n      caller\n        /* \"Campaign.sol\":1879:1908  request.approvals[msg.sender] */\n      0xffffffffffffffffffffffffffffffffffffffff\n      and\n      0xffffffffffffffffffffffffffffffffffffffff\n      and\n      dup2\n      mstore\n      0x20\n      add\n      swap1\n      dup2\n      mstore\n      0x20\n      add\n      0x00\n      keccak256\n      0x00\n      swap1\n      sload\n      swap1\n      0x0100\n      exp\n      swap1\n      div\n      0xff\n      and\n        /* \"Campaign.sol\":1878:1908  !request.approvals[msg.sender] */\n      iszero\n        /* \"Campaign.sol\":1870:1909  require(!request.approvals[msg.sender]) */\n      tag_115\n      jumpi\n      0x00\n      dup1\n      revert\n    tag_115:\n        /* \"Campaign.sol\":1952:1956  true */\n      0x01\n        /* \"Campaign.sol\":1920:1927  request */\n      dup2\n        /* \"Campaign.sol\":1920:1937  request.approvals */\n      0x04\n      add\n        /* \"Campaign.sol\":1920:1949  request.approvals[msg.sender] */\n      0x00\n        /* \"Campaign.sol\":1938:1948  msg.sender */\n      caller\n        /* \"Campaign.sol\":1920:1949  request.approvals[msg.sender] */\n      0xffffffffffffffffffffffffffffffffffffffff\n      and\n      0xffffffffffffffffffffffffffffffffffffffff\n      and\n      dup2\n      mstore\n      0x20\n      add\n      swap1\n      dup2\n      mstore\n      0x20\n      add\n      0x00\n      keccak256\n      0x00\n        /* \"Campaign.sol\":1920:1956  request.approvals[msg.sender] = true */\n      0x0100\n      exp\n      dup2\n      sload\n      dup2\n      0xff\n      mul\n      not\n      and\n      swap1\n      dup4\n      iszero\n      iszero\n      mul\n      or\n      swap1\n      sstore\n      pop\n        /* \"Campaign.sol\":1966:1973  request */\n      dup1\n        /* \"Campaign.sol\":1966:1987  request.approvalCount */\n      0x03\n      add\n      0x00\n        /* \"Campaign.sol\":1966:1989  request.approvalCount++ */\n      dup2\n      sload\n      dup1\n      swap3\n      swap2\n      swap1\n      tag_116\n      swap1\n      tag_99\n      jump\t// in\n    tag_116:\n      swap2\n      swap1\n      pop\n      sstore\n      pop\n        /* \"Campaign.sol\":1768:1997  {... */\n      pop\n        /* \"Campaign.sol\":1725:1997  function approveRequest(uint index) public {... */\n      pop\n      jump\t// out\n    tag_104:\n      dup3\n      dup1\n      sload\n      tag_117\n      swap1\n      tag_89\n      jump\t// in\n    tag_117:\n      swap1\n      0x00\n      mstore\n      keccak256(0x00, 0x20)\n      swap1\n      0x1f\n      add\n      0x20\n      swap1\n      div\n      dup2\n      add\n      swap3\n      dup3\n      tag_119\n      jumpi\n      0x00\n      dup6\n      sstore\n      jump(tag_118)\n    tag_119:\n      dup3\n      0x1f\n      lt\n      tag_120\n      jumpi\n      dup1\n      mload\n      not(0xff)\n      and\n      dup4\n      dup1\n      add\n      or\n      dup6\n      sstore\n      jump(tag_118)\n    tag_120:\n      dup3\n      dup1\n      add\n      0x01\n      add\n      dup6\n      sstore\n      dup3\n      iszero\n      tag_118\n      jumpi\n      swap2\n      dup3\n      add\n    tag_121:\n      dup3\n      dup2\n      gt\n      iszero\n      tag_122\n      jumpi\n      dup3\n      mload\n      dup3\n      sstore\n      swap2\n      0x20\n      add\n      swap2\n      swap1\n      0x01\n      add\n      swap1\n      jump(tag_121)\n    tag_122:\n    tag_118:\n      pop\n      swap1\n      pop\n      tag_123\n      swap2\n      swap1\n      tag_124\n      jump\t// in\n    tag_123:\n      pop\n      swap1\n      jump\t// out\n    tag_124:\n    tag_125:\n      dup1\n      dup3\n      gt\n      iszero\n      tag_126\n      jumpi\n      0x00\n      dup2\n      0x00\n      swap1\n      sstore\n      pop\n      0x01\n      add\n      jump(tag_125)\n    tag_126:\n      pop\n      swap1\n      jump\t// out\n        /* \"#utility.yul\":7:82   */\n    tag_127:\n        /* \"#utility.yul\":40:46   */\n      0x00\n        /* \"#utility.yul\":73:75   */\n      0x40\n        /* \"#utility.yul\":67:76   */\n      mload\n        /* \"#utility.yul\":57:76   */\n      swap1\n      pop\n        /* \"#utility.yul\":7:82   */\n      swap1\n      jump\t// out\n        /* \"#utility.yul\":88:205   */\n    tag_128:\n        /* \"#utility.yul\":197:198   */\n      0x00\n        /* \"#utility.yul\":194:195   */\n      dup1\n        /* \"#utility.yul\":187:199   */\n      revert\n        /* \"#utility.yul\":211:328   */\n    tag_129:\n        /* \"#utility.yul\":320:321   */\n      0x00\n        /* \"#utility.yul\":317:318   */\n      dup1\n        /* \"#utility.yul\":310:322   */\n      revert\n        /* \"#utility.yul\":334:411   */\n    tag_130:\n        /* \"#utility.yul\":371:378   */\n      0x00\n        /* \"#utility.yul\":400:405   */\n      dup2\n        /* \"#utility.yul\":389:405   */\n      swap1\n      pop\n        /* \"#utility.yul\":334:411   */\n      swap2\n      swap1\n      pop\n      jump\t// out\n        /* \"#utility.yul\":417:539   */\n    tag_131:\n        /* \"#utility.yul\":490:514   */\n      tag_164\n        /* \"#utility.yul\":508:513   */\n      dup2\n        /* \"#utility.yul\":490:514   */\n      tag_130\n      jump\t// in\n    tag_164:\n        /* \"#utility.yul\":483:488   */\n      dup2\n        /* \"#utility.yul\":480:515   */\n      eq\n        /* \"#utility.yul\":470:533   */\n      tag_165\n      jumpi\n        /* \"#utility.yul\":529:530   */\n      0x00\n        /* \"#utility.yul\":526:527   */\n      dup1\n        /* \"#utility.yul\":519:531   */\n      revert\n        /* \"#utility.yul\":470:533   */\n    tag_165:\n        /* \"#utility.yul\":417:539   */\n      pop\n      jump\t// out\n        /* \"#utility.yul\":545:684   */\n    tag_132:\n        /* \"#utility.yul\":591:596   */\n      0x00\n        /* \"#utility.yul\":629:635   */\n      dup2\n        /* \"#utility.yul\":616:636   */\n      calldataload\n        /* \"#utility.yul\":607:636   */\n      swap1\n      pop\n        /* \"#utility.yul\":645:678   */\n      tag_167\n        /* \"#utility.yul\":672:677   */\n      dup2\n        /* \"#utility.yul\":645:678   */\n      tag_131\n      jump\t// in\n    tag_167:\n        /* \"#utility.yul\":545:684   */\n      swap3\n      swap2\n      pop\n      pop\n      jump\t// out\n        /* \"#utility.yul\":690:1019   */\n    tag_18:\n        /* \"#utility.yul\":749:755   */\n      0x00\n        /* \"#utility.yul\":798:800   */\n      0x20\n        /* \"#utility.yul\":786:795   */\n      dup3\n        /* \"#utility.yul\":777:784   */\n      dup5\n        /* \"#utility.yul\":773:796   */\n      sub\n        /* \"#utility.yul\":769:801   */\n      slt\n        /* \"#utility.yul\":766:885   */\n      iszero\n      tag_169\n      jumpi\n        /* \"#utility.yul\":804:883   */\n      tag_170\n      tag_128\n      jump\t// in\n    tag_170:\n        /* \"#utility.yul\":766:885   */\n    tag_169:\n        /* \"#utility.yul\":924:925   */\n      0x00\n        /* \"#utility.yul\":949:1002   */\n      tag_171\n        /* \"#utility.yul\":994:1001   */\n      dup5\n        /* \"#utility.yul\":985:991   */\n      dup3\n        /* \"#utility.yul\":974:983   */\n      dup6\n        /* \"#utility.yul\":970:992   */\n      add\n        /* \"#utility.yul\":949:1002   */\n      tag_132\n      jump\t// in\n    tag_171:\n        /* \"#utility.yul\":939:1002   */\n      swap2\n      pop\n        /* \"#utility.yul\":895:1012   */\n      pop\n        /* \"#utility.yul\":690:1019   */\n      swap3\n      swap2\n      pop\n      pop\n      jump\t// out\n        /* \"#utility.yul\":1025:1151   */\n    tag_133:\n        /* \"#utility.yul\":1062:1069   */\n      0x00\n        /* \"#utility.yul\":1102:1144   */\n      0xffffffffffffffffffffffffffffffffffffffff\n        /* \"#utility.yul\":1095:1100   */\n      dup3\n        /* \"#utility.yul\":1091:1145   */\n      and\n        /* \"#utility.yul\":1080:1145   */\n      swap1\n      pop\n        /* \"#utility.yul\":1025:1151   */\n      swap2\n      swap1\n      pop\n      jump\t// out\n        /* \"#utility.yul\":1157:1253   */\n    tag_134:\n        /* \"#utility.yul\":1194:1201   */\n      0x00\n        /* \"#utility.yul\":1223:1247   */\n      tag_174\n        /* \"#utility.yul\":1241:1246   */\n      dup3\n        /* \"#utility.yul\":1223:1247   */\n      tag_133\n      jump\t// in\n    tag_174:\n        /* \"#utility.yul\":1212:1247   */\n      swap1\n      pop\n        /* \"#utility.yul\":1157:1253   */\n      swap2\n      swap1\n      pop\n      jump\t// out\n        /* \"#utility.yul\":1259:1381   */\n    tag_135:\n        /* \"#utility.yul\":1332:1356   */\n      tag_176\n        /* \"#utility.yul\":1350:1355   */\n      dup2\n        /* \"#utility.yul\":1332:1356   */\n      tag_134\n      jump\t// in\n    tag_176:\n        /* \"#utility.yul\":1325:1330   */\n      dup2\n        /* \"#utility.yul\":1322:1357   */\n      eq\n        /* \"#utility.yul\":1312:1375   */\n      tag_177\n      jumpi\n        /* \"#utility.yul\":1371:1372   */\n      0x00\n        /* \"#utility.yul\":1368:1369   */\n      dup1\n        /* \"#utility.yul\":1361:1373   */\n      revert\n        /* \"#utility.yul\":1312:1375   */\n    tag_177:\n        /* \"#utility.yul\":1259:1381   */\n      pop\n      jump\t// out\n        /* \"#utility.yul\":1387:1526   */\n    tag_136:\n        /* \"#utility.yul\":1433:1438   */\n      0x00\n        /* \"#utility.yul\":1471:1477   */\n      dup2\n        /* \"#utility.yul\":1458:1478   */\n      calldataload\n        /* \"#utility.yul\":1449:1478   */\n      swap1\n      pop\n        /* \"#utility.yul\":1487:1520   */\n      tag_179\n        /* \"#utility.yul\":1514:1519   */\n      dup2\n        /* \"#utility.yul\":1487:1520   */\n      tag_135\n      jump\t// in\n    tag_179:\n        /* \"#utility.yul\":1387:1526   */\n      swap3\n      swap2\n      pop\n      pop\n      jump\t// out\n        /* \"#utility.yul\":1532:1861   */\n    tag_23:\n        /* \"#utility.yul\":1591:1597   */\n      0x00\n        /* \"#utility.yul\":1640:1642   */\n      0x20\n        /* \"#utility.yul\":1628:1637   */\n      dup3\n        /* \"#utility.yul\":1619:1626   */\n      dup5\n        /* \"#utility.yul\":1615:1638   */\n      sub\n        /* \"#utility.yul\":1611:1643   */\n      slt\n        /* \"#utility.yul\":1608:1727   */\n      iszero\n      tag_181\n      jumpi\n        /* \"#utility.yul\":1646:1725   */\n      tag_182\n      tag_128\n      jump\t// in\n    tag_182:\n        /* \"#utility.yul\":1608:1727   */\n    tag_181:\n        /* \"#utility.yul\":1766:1767   */\n      0x00\n        /* \"#utility.yul\":1791:1844   */\n      tag_183\n        /* \"#utility.yul\":1836:1843   */\n      dup5\n        /* \"#utility.yul\":1827:1833   */\n      dup3\n        /* \"#utility.yul\":1816:1825   */\n      dup6\n        /* \"#utility.yul\":1812:1834   */\n      add\n        /* \"#utility.yul\":1791:1844   */\n      tag_136\n      jump\t// in\n    tag_183:\n        /* \"#utility.yul\":1781:1844   */\n      swap2\n      pop\n        /* \"#utility.yul\":1737:1854   */\n      pop\n        /* \"#utility.yul\":1532:1861   */\n      swap3\n      swap2\n      pop\n      pop\n      jump\t// out\n        /* \"#utility.yul\":1867:1957   */\n    tag_137:\n        /* \"#utility.yul\":1901:1908   */\n      0x00\n        /* \"#utility.yul\":1944:1949   */\n      dup2\n        /* \"#utility.yul\":1937:1950   */\n      iszero\n        /* \"#utility.yul\":1930:1951   */\n      iszero\n        /* \"#utility.yul\":1919:1951   */\n      swap1\n      pop\n        /* \"#utility.yul\":1867:1957   */\n      swap2\n      swap1\n      pop\n      jump\t// out\n        /* \"#utility.yul\":1963:2072   */\n    tag_138:\n        /* \"#utility.yul\":2044:2065   */\n      tag_186\n        /* \"#utility.yul\":2059:2064   */\n      dup2\n        /* \"#utility.yul\":2044:2065   */\n      tag_137\n      jump\t// in\n    tag_186:\n        /* \"#utility.yul\":2039:2042   */\n      dup3\n        /* \"#utility.yul\":2032:2066   */\n      mstore\n        /* \"#utility.yul\":1963:2072   */\n      pop\n      pop\n      jump\t// out\n        /* \"#utility.yul\":2078:2288   */\n    tag_26:\n        /* \"#utility.yul\":2165:2169   */\n      0x00\n        /* \"#utility.yul\":2203:2205   */\n      0x20\n        /* \"#utility.yul\":2192:2201   */\n      dup3\n        /* \"#utility.yul\":2188:2206   */\n      add\n        /* \"#utility.yul\":2180:2206   */\n      swap1\n      pop\n        /* \"#utility.yul\":2216:2281   */\n      tag_188\n        /* \"#utility.yul\":2278:2279   */\n      0x00\n        /* \"#utility.yul\":2267:2276   */\n      dup4\n        /* \"#utility.yul\":2263:2280   */\n      add\n        /* \"#utility.yul\":2254:2260   */\n      dup5\n        /* \"#utility.yul\":2216:2281   */\n      tag_138\n      jump\t// in\n    tag_188:\n        /* \"#utility.yul\":2078:2288   */\n      swap3\n      swap2\n      pop\n      pop\n      jump\t// out\n        /* \"#utility.yul\":2294:2412   */\n    tag_139:\n        /* \"#utility.yul\":2381:2405   */\n      tag_190\n        /* \"#utility.yul\":2399:2404   */\n      dup2\n        /* \"#utility.yul\":2381:2405   */\n      tag_130\n      jump\t// in\n    tag_190:\n        /* \"#utility.yul\":2376:2379   */\n      dup3\n        /* \"#utility.yul\":2369:2406   */\n      mstore\n        /* \"#utility.yul\":2294:2412   */\n      pop\n      pop\n      jump\t// out\n        /* \"#utility.yul\":2418:2640   */\n    tag_31:\n        /* \"#utility.yul\":2511:2515   */\n      0x00\n        /* \"#utility.yul\":2549:2551   */\n      0x20\n        /* \"#utility.yul\":2538:2547   */\n      dup3\n        /* \"#utility.yul\":2534:2552   */\n      add\n        /* \"#utility.yul\":2526:2552   */\n      swap1\n      pop\n        /* \"#utility.yul\":2562:2633   */\n      tag_192\n        /* \"#utility.yul\":2630:2631   */\n      0x00\n        /* \"#utility.yul\":2619:2628   */\n      dup4\n        /* \"#utility.yul\":2615:2632   */\n      add\n        /* \"#utility.yul\":2606:2612   */\n      dup5\n        /* \"#utility.yul\":2562:2633   */\n      tag_139\n      jump\t// in\n    tag_192:\n        /* \"#utility.yul\":2418:2640   */\n      swap3\n      swap2\n      pop\n      pop\n      jump\t// out\n        /* \"#utility.yul\":2646:2764   */\n    tag_140:\n        /* \"#utility.yul\":2733:2757   */\n      tag_194\n        /* \"#utility.yul\":2751:2756   */\n      dup2\n        /* \"#utility.yul\":2733:2757   */\n      tag_134\n      jump\t// in\n    tag_194:\n        /* \"#utility.yul\":2728:2731   */\n      dup3\n        /* \"#utility.yul\":2721:2758   */\n      mstore\n        /* \"#utility.yul\":2646:2764   */\n      pop\n      pop\n      jump\t// out\n        /* \"#utility.yul\":2770:3434   */\n    tag_36:\n        /* \"#utility.yul\":2975:2979   */\n      0x00\n        /* \"#utility.yul\":3013:3016   */\n      0xa0\n        /* \"#utility.yul\":3002:3011   */\n      dup3\n        /* \"#utility.yul\":2998:3017   */\n      add\n        /* \"#utility.yul\":2990:3017   */\n      swap1\n      pop\n        /* \"#utility.yul\":3027:3098   */\n      tag_196\n        /* \"#utility.yul\":3095:3096   */\n      0x00\n        /* \"#utility.yul\":3084:3093   */\n      dup4\n        /* \"#utility.yul\":3080:3097   */\n      add\n        /* \"#utility.yul\":3071:3077   */\n      dup9\n        /* \"#utility.yul\":3027:3098   */\n      tag_139\n      jump\t// in\n    tag_196:\n        /* \"#utility.yul\":3108:3180   */\n      tag_197\n        /* \"#utility.yul\":3176:3178   */\n      0x20\n        /* \"#utility.yul\":3165:3174   */\n      dup4\n        /* \"#utility.yul\":3161:3179   */\n      add\n        /* \"#utility.yul\":3152:3158   */\n      dup8\n        /* \"#utility.yul\":3108:3180   */\n      tag_139\n      jump\t// in\n    tag_197:\n        /* \"#utility.yul\":3190:3262   */\n      tag_198\n        /* \"#utility.yul\":3258:3260   */\n      0x40\n        /* \"#utility.yul\":3247:3256   */\n      dup4\n        /* \"#utility.yul\":3243:3261   */\n      add\n        /* \"#utility.yul\":3234:3240   */\n      dup7\n        /* \"#utility.yul\":3190:3262   */\n      tag_139\n      jump\t// in\n    tag_198:\n        /* \"#utility.yul\":3272:3344   */\n      tag_199\n        /* \"#utility.yul\":3340:3342   */\n      0x60\n        /* \"#utility.yul\":3329:3338   */\n      dup4\n        /* \"#utility.yul\":3325:3343   */\n      add\n        /* \"#utility.yul\":3316:3322   */\n      dup6\n        /* \"#utility.yul\":3272:3344   */\n      tag_139\n      jump\t// in\n    tag_199:\n        /* \"#utility.yul\":3354:3427   */\n      tag_200\n        /* \"#utility.yul\":3422:3425   */\n      0x80\n        /* \"#utility.yul\":3411:3420   */\n      dup4\n        /* \"#utility.yul\":3407:3426   */\n      add\n        /* \"#utility.yul\":3398:3404   */\n      dup5\n        /* \"#utility.yul\":3354:3427   */\n      tag_140\n      jump\t// in\n    tag_200:\n        /* \"#utility.yul\":2770:3434   */\n      swap7\n      swap6\n      pop\n      pop\n      pop\n      pop\n      pop\n      pop\n      jump\t// out\n        /* \"#utility.yul\":3440:3662   */\n    tag_41:\n        /* \"#utility.yul\":3533:3537   */\n      0x00\n        /* \"#utility.yul\":3571:3573   */\n      0x20\n        /* \"#utility.yul\":3560:3569   */\n      dup3\n        /* \"#utility.yul\":3556:3574   */\n      add\n        /* \"#utility.yul\":3548:3574   */\n      swap1\n      pop\n        /* \"#utility.yul\":3584:3655   */\n      tag_202\n        /* \"#utility.yul\":3652:3653   */\n      0x00\n        /* \"#utility.yul\":3641:3650   */\n      dup4\n        /* \"#utility.yul\":3637:3654   */\n      add\n        /* \"#utility.yul\":3628:3634   */\n      dup5\n        /* \"#utility.yul\":3584:3655   */\n      tag_140\n      jump\t// in\n    tag_202:\n        /* \"#utility.yul\":3440:3662   */\n      swap3\n      swap2\n      pop\n      pop\n      jump\t// out\n        /* \"#utility.yul\":3668:3767   */\n    tag_141:\n        /* \"#utility.yul\":3720:3726   */\n      0x00\n        /* \"#utility.yul\":3754:3759   */\n      dup2\n        /* \"#utility.yul\":3748:3760   */\n      mload\n        /* \"#utility.yul\":3738:3760   */\n      swap1\n      pop\n        /* \"#utility.yul\":3668:3767   */\n      swap2\n      swap1\n      pop\n      jump\t// out\n        /* \"#utility.yul\":3773:3942   */\n    tag_142:\n        /* \"#utility.yul\":3857:3868   */\n      0x00\n        /* \"#utility.yul\":3891:3897   */\n      dup3\n        /* \"#utility.yul\":3886:3889   */\n      dup3\n        /* \"#utility.yul\":3879:3898   */\n      mstore\n        /* \"#utility.yul\":3931:3935   */\n      0x20\n        /* \"#utility.yul\":3926:3929   */\n      dup3\n        /* \"#utility.yul\":3922:3936   */\n      add\n        /* \"#utility.yul\":3907:3936   */\n      swap1\n      pop\n        /* \"#utility.yul\":3773:3942   */\n      swap3\n      swap2\n      pop\n      pop\n      jump\t// out\n        /* \"#utility.yul\":3948:4255   */\n    tag_143:\n        /* \"#utility.yul\":4016:4017   */\n      0x00\n        /* \"#utility.yul\":4026:4139   */\n    tag_206:\n        /* \"#utility.yul\":4040:4046   */\n      dup4\n        /* \"#utility.yul\":4037:4038   */\n      dup2\n        /* \"#utility.yul\":4034:4047   */\n      lt\n        /* \"#utility.yul\":4026:4139   */\n      iszero\n      tag_208\n      jumpi\n        /* \"#utility.yul\":4125:4126   */\n      dup1\n        /* \"#utility.yul\":4120:4123   */\n      dup3\n        /* \"#utility.yul\":4116:4127   */\n      add\n        /* \"#utility.yul\":4110:4128   */\n      mload\n        /* \"#utility.yul\":4106:4107   */\n      dup2\n        /* \"#utility.yul\":4101:4104   */\n      dup5\n        /* \"#utility.yul\":4097:4108   */\n      add\n        /* \"#utility.yul\":4090:4129   */\n      mstore\n        /* \"#utility.yul\":4062:4064   */\n      0x20\n        /* \"#utility.yul\":4059:4060   */\n      dup2\n        /* \"#utility.yul\":4055:4065   */\n      add\n        /* \"#utility.yul\":4050:4065   */\n      swap1\n      pop\n        /* \"#utility.yul\":4026:4139   */\n      jump(tag_206)\n    tag_208:\n        /* \"#utility.yul\":4157:4163   */\n      dup4\n        /* \"#utility.yul\":4154:4155   */\n      dup2\n        /* \"#utility.yul\":4151:4164   */\n      gt\n        /* \"#utility.yul\":4148:4249   */\n      iszero\n      tag_209\n      jumpi\n        /* \"#utility.yul\":4237:4238   */\n      0x00\n        /* \"#utility.yul\":4228:4234   */\n      dup5\n        /* \"#utility.yul\":4223:4226   */\n      dup5\n        /* \"#utility.yul\":4219:4235   */\n      add\n        /* \"#utility.yul\":4212:4239   */\n      mstore\n        /* \"#utility.yul\":4148:4249   */\n    tag_209:\n        /* \"#utility.yul\":3997:4255   */\n      pop\n        /* \"#utility.yul\":3948:4255   */\n      pop\n      pop\n      pop\n      jump\t// out\n        /* \"#utility.yul\":4261:4363   */\n    tag_144:\n        /* \"#utility.yul\":4302:4308   */\n      0x00\n        /* \"#utility.yul\":4353:4355   */\n      0x1f\n        /* \"#utility.yul\":4349:4356   */\n      not\n        /* \"#utility.yul\":4344:4346   */\n      0x1f\n        /* \"#utility.yul\":4337:4342   */\n      dup4\n        /* \"#utility.yul\":4333:4347   */\n      add\n        /* \"#utility.yul\":4329:4357   */\n      and\n        /* \"#utility.yul\":4319:4357   */\n      swap1\n      pop\n        /* \"#utility.yul\":4261:4363   */\n      swap2\n      swap1\n      pop\n      jump\t// out\n        /* \"#utility.yul\":4369:4733   */\n    tag_145:\n        /* \"#utility.yul\":4457:4460   */\n      0x00\n        /* \"#utility.yul\":4485:4524   */\n      tag_212\n        /* \"#utility.yul\":4518:4523   */\n      dup3\n        /* \"#utility.yul\":4485:4524   */\n      tag_141\n      jump\t// in\n    tag_212:\n        /* \"#utility.yul\":4540:4611   */\n      tag_213\n        /* \"#utility.yul\":4604:4610   */\n      dup2\n        /* \"#utility.yul\":4599:4602   */\n      dup6\n        /* \"#utility.yul\":4540:4611   */\n      tag_142\n      jump\t// in\n    tag_213:\n        /* \"#utility.yul\":4533:4611   */\n      swap4\n      pop\n        /* \"#utility.yul\":4620:4672   */\n      tag_214\n        /* \"#utility.yul\":4665:4671   */\n      dup2\n        /* \"#utility.yul\":4660:4663   */\n      dup6\n        /* \"#utility.yul\":4653:4657   */\n      0x20\n        /* \"#utility.yul\":4646:4651   */\n      dup7\n        /* \"#utility.yul\":4642:4658   */\n      add\n        /* \"#utility.yul\":4620:4672   */\n      tag_143\n      jump\t// in\n    tag_214:\n        /* \"#utility.yul\":4697:4726   */\n      tag_215\n        /* \"#utility.yul\":4719:4725   */\n      dup2\n        /* \"#utility.yul\":4697:4726   */\n      tag_144\n      jump\t// in\n    tag_215:\n        /* \"#utility.yul\":4692:4695   */\n      dup5\n        /* \"#utility.yul\":4688:4727   */\n      add\n        /* \"#utility.yul\":4681:4727   */\n      swap2\n      pop\n        /* \"#utility.yul\":4461:4733   */\n      pop\n        /* \"#utility.yul\":4369:4733   */\n      swap3\n      swap2\n      pop\n      pop\n      jump\t// out\n        /* \"#utility.yul\":4739:5482   */\n    tag_47:\n        /* \"#utility.yul\":4958:4962   */\n      0x00\n        /* \"#utility.yul\":4996:4999   */\n      0xa0\n        /* \"#utility.yul\":4985:4994   */\n      dup3\n        /* \"#utility.yul\":4981:5000   */\n      add\n        /* \"#utility.yul\":4973:5000   */\n      swap1\n      pop\n        /* \"#utility.yul\":5046:5055   */\n      dup2\n        /* \"#utility.yul\":5040:5044   */\n      dup2\n        /* \"#utility.yul\":5036:5056   */\n      sub\n        /* \"#utility.yul\":5032:5033   */\n      0x00\n        /* \"#utility.yul\":5021:5030   */\n      dup4\n        /* \"#utility.yul\":5017:5034   */\n      add\n        /* \"#utility.yul\":5010:5057   */\n      mstore\n        /* \"#utility.yul\":5074:5152   */\n      tag_217\n        /* \"#utility.yul\":5147:5151   */\n      dup2\n        /* \"#utility.yul\":5138:5144   */\n      dup9\n        /* \"#utility.yul\":5074:5152   */\n      tag_145\n      jump\t// in\n    tag_217:\n        /* \"#utility.yul\":5066:5152   */\n      swap1\n      pop\n        /* \"#utility.yul\":5162:5234   */\n      tag_218\n        /* \"#utility.yul\":5230:5232   */\n      0x20\n        /* \"#utility.yul\":5219:5228   */\n      dup4\n        /* \"#utility.yul\":5215:5233   */\n      add\n        /* \"#utility.yul\":5206:5212   */\n      dup8\n        /* \"#utility.yul\":5162:5234   */\n      tag_139\n      jump\t// in\n    tag_218:\n        /* \"#utility.yul\":5244:5316   */\n      tag_219\n        /* \"#utility.yul\":5312:5314   */\n      0x40\n        /* \"#utility.yul\":5301:5310   */\n      dup4\n        /* \"#utility.yul\":5297:5315   */\n      add\n        /* \"#utility.yul\":5288:5294   */\n      dup7\n        /* \"#utility.yul\":5244:5316   */\n      tag_140\n      jump\t// in\n    tag_219:\n        /* \"#utility.yul\":5326:5392   */\n      tag_220\n        /* \"#utility.yul\":5388:5390   */\n      0x60\n        /* \"#utility.yul\":5377:5386   */\n      dup4\n        /* \"#utility.yul\":5373:5391   */\n      add\n        /* \"#utility.yul\":5364:5370   */\n      dup6\n        /* \"#utility.yul\":5326:5392   */\n      tag_138\n      jump\t// in\n    tag_220:\n        /* \"#utility.yul\":5402:5475   */\n      tag_221\n        /* \"#utility.yul\":5470:5473   */\n      0x80\n        /* \"#utility.yul\":5459:5468   */\n      dup4\n        /* \"#utility.yul\":5455:5474   */\n      add\n        /* \"#utility.yul\":5446:5452   */\n      dup5\n        /* \"#utility.yul\":5402:5475   */\n      tag_139\n      jump\t// in\n    tag_221:\n        /* \"#utility.yul\":4739:5482   */\n      swap7\n      swap6\n      pop\n      pop\n      pop\n      pop\n      pop\n      pop\n      jump\t// out\n        /* \"#utility.yul\":5488:5605   */\n    tag_146:\n        /* \"#utility.yul\":5597:5598   */\n      0x00\n        /* \"#utility.yul\":5594:5595   */\n      dup1\n        /* \"#utility.yul\":5587:5599   */\n      revert\n        /* \"#utility.yul\":5611:5728   */\n    tag_147:\n        /* \"#utility.yul\":5720:5721   */\n      0x00\n        /* \"#utility.yul\":5717:5718   */\n      dup1\n        /* \"#utility.yul\":5710:5722   */\n      revert\n        /* \"#utility.yul\":5734:5914   */\n    tag_148:\n        /* \"#utility.yul\":5782:5859   */\n      0x4e487b7100000000000000000000000000000000000000000000000000000000\n        /* \"#utility.yul\":5779:5780   */\n      0x00\n        /* \"#utility.yul\":5772:5860   */\n      mstore\n        /* \"#utility.yul\":5879:5883   */\n      0x41\n        /* \"#utility.yul\":5876:5877   */\n      0x04\n        /* \"#utility.yul\":5869:5884   */\n      mstore\n        /* \"#utility.yul\":5903:5907   */\n      0x24\n        /* \"#utility.yul\":5900:5901   */\n      0x00\n        /* \"#utility.yul\":5893:5908   */\n      revert\n        /* \"#utility.yul\":5920:6201   */\n    tag_149:\n        /* \"#utility.yul\":6003:6030   */\n      tag_226\n        /* \"#utility.yul\":6025:6029   */\n      dup3\n        /* \"#utility.yul\":6003:6030   */\n      tag_144\n      jump\t// in\n    tag_226:\n        /* \"#utility.yul\":5995:6001   */\n      dup2\n        /* \"#utility.yul\":5991:6031   */\n      add\n        /* \"#utility.yul\":6133:6139   */\n      dup2\n        /* \"#utility.yul\":6121:6131   */\n      dup2\n        /* \"#utility.yul\":6118:6140   */\n      lt\n        /* \"#utility.yul\":6097:6115   */\n      0xffffffffffffffff\n        /* \"#utility.yul\":6085:6095   */\n      dup3\n        /* \"#utility.yul\":6082:6116   */\n      gt\n        /* \"#utility.yul\":6079:6141   */\n      or\n        /* \"#utility.yul\":6076:6164   */\n      iszero\n      tag_227\n      jumpi\n        /* \"#utility.yul\":6144:6162   */\n      tag_228\n      tag_148\n      jump\t// in\n    tag_228:\n        /* \"#utility.yul\":6076:6164   */\n    tag_227:\n        /* \"#utility.yul\":6184:6194   */\n      dup1\n        /* \"#utility.yul\":6180:6182   */\n      0x40\n        /* \"#utility.yul\":6173:6195   */\n      mstore\n        /* \"#utility.yul\":5963:6201   */\n      pop\n        /* \"#utility.yul\":5920:6201   */\n      pop\n      pop\n      jump\t// out\n        /* \"#utility.yul\":6207:6336   */\n    tag_150:\n        /* \"#utility.yul\":6241:6247   */\n      0x00\n        /* \"#utility.yul\":6268:6288   */\n      tag_230\n      tag_127\n      jump\t// in\n    tag_230:\n        /* \"#utility.yul\":6258:6288   */\n      swap1\n      pop\n        /* \"#utility.yul\":6297:6330   */\n      tag_231\n        /* \"#utility.yul\":6325:6329   */\n      dup3\n        /* \"#utility.yul\":6317:6323   */\n      dup3\n        /* \"#utility.yul\":6297:6330   */\n      tag_149\n      jump\t// in\n    tag_231:\n        /* \"#utility.yul\":6207:6336   */\n      swap2\n      swap1\n      pop\n      jump\t// out\n        /* \"#utility.yul\":6342:6650   */\n    tag_151:\n        /* \"#utility.yul\":6404:6408   */\n      0x00\n        /* \"#utility.yul\":6494:6512   */\n      0xffffffffffffffff\n        /* \"#utility.yul\":6486:6492   */\n      dup3\n        /* \"#utility.yul\":6483:6513   */\n      gt\n        /* \"#utility.yul\":6480:6536   */\n      iszero\n      tag_233\n      jumpi\n        /* \"#utility.yul\":6516:6534   */\n      tag_234\n      tag_148\n      jump\t// in\n    tag_234:\n        /* \"#utility.yul\":6480:6536   */\n    tag_233:\n        /* \"#utility.yul\":6554:6583   */\n      tag_235\n        /* \"#utility.yul\":6576:6582   */\n      dup3\n        /* \"#utility.yul\":6554:6583   */\n      tag_144\n      jump\t// in\n    tag_235:\n        /* \"#utility.yul\":6546:6583   */\n      swap1\n      pop\n        /* \"#utility.yul\":6638:6642   */\n      0x20\n        /* \"#utility.yul\":6632:6636   */\n      dup2\n        /* \"#utility.yul\":6628:6643   */\n      add\n        /* \"#utility.yul\":6620:6643   */\n      swap1\n      pop\n        /* \"#utility.yul\":6342:6650   */\n      swap2\n      swap1\n      pop\n      jump\t// out\n        /* \"#utility.yul\":6656:6810   */\n    tag_152:\n        /* \"#utility.yul\":6740:6746   */\n      dup3\n        /* \"#utility.yul\":6735:6738   */\n      dup2\n        /* \"#utility.yul\":6730:6733   */\n      dup4\n        /* \"#utility.yul\":6717:6747   */\n      calldatacopy\n        /* \"#utility.yul\":6802:6803   */\n      0x00\n        /* \"#utility.yul\":6793:6799   */\n      dup4\n        /* \"#utility.yul\":6788:6791   */\n      dup4\n        /* \"#utility.yul\":6784:6800   */\n      add\n        /* \"#utility.yul\":6777:6804   */\n      mstore\n        /* \"#utility.yul\":6656:6810   */\n      pop\n      pop\n      pop\n      jump\t// out\n        /* \"#utility.yul\":6816:7228   */\n    tag_153:\n        /* \"#utility.yul\":6894:6899   */\n      0x00\n        /* \"#utility.yul\":6919:6985   */\n      tag_238\n        /* \"#utility.yul\":6935:6984   */\n      tag_239\n        /* \"#utility.yul\":6977:6983   */\n      dup5\n        /* \"#utility.yul\":6935:6984   */\n      tag_151\n      jump\t// in\n    tag_239:\n        /* \"#utility.yul\":6919:6985   */\n      tag_150\n      jump\t// in\n    tag_238:\n        /* \"#utility.yul\":6910:6985   */\n      swap1\n      pop\n        /* \"#utility.yul\":7008:7014   */\n      dup3\n        /* \"#utility.yul\":7001:7006   */\n      dup2\n        /* \"#utility.yul\":6994:7015   */\n      mstore\n        /* \"#utility.yul\":7046:7050   */\n      0x20\n        /* \"#utility.yul\":7039:7044   */\n      dup2\n        /* \"#utility.yul\":7035:7051   */\n      add\n        /* \"#utility.yul\":7084:7087   */\n      dup5\n        /* \"#utility.yul\":7075:7081   */\n      dup5\n        /* \"#utility.yul\":7070:7073   */\n      dup5\n        /* \"#utility.yul\":7066:7082   */\n      add\n        /* \"#utility.yul\":7063:7088   */\n      gt\n        /* \"#utility.yul\":7060:7172   */\n      iszero\n      tag_240\n      jumpi\n        /* \"#utility.yul\":7091:7170   */\n      tag_241\n      tag_147\n      jump\t// in\n    tag_241:\n        /* \"#utility.yul\":7060:7172   */\n    tag_240:\n        /* \"#utility.yul\":7181:7222   */\n      tag_242\n        /* \"#utility.yul\":7215:7221   */\n      dup5\n        /* \"#utility.yul\":7210:7213   */\n      dup3\n        /* \"#utility.yul\":7205:7208   */\n      dup6\n        /* \"#utility.yul\":7181:7222   */\n      tag_152\n      jump\t// in\n    tag_242:\n        /* \"#utility.yul\":6900:7228   */\n      pop\n        /* \"#utility.yul\":6816:7228   */\n      swap4\n      swap3\n      pop\n      pop\n      pop\n      jump\t// out\n        /* \"#utility.yul\":7248:7588   */\n    tag_154:\n        /* \"#utility.yul\":7304:7309   */\n      0x00\n        /* \"#utility.yul\":7353:7356   */\n      dup3\n        /* \"#utility.yul\":7346:7350   */\n      0x1f\n        /* \"#utility.yul\":7338:7344   */\n      dup4\n        /* \"#utility.yul\":7334:7351   */\n      add\n        /* \"#utility.yul\":7330:7357   */\n      slt\n        /* \"#utility.yul\":7320:7442   */\n      tag_244\n      jumpi\n        /* \"#utility.yul\":7361:7440   */\n      tag_245\n      tag_146\n      jump\t// in\n    tag_245:\n        /* \"#utility.yul\":7320:7442   */\n    tag_244:\n        /* \"#utility.yul\":7478:7484   */\n      dup2\n        /* \"#utility.yul\":7465:7485   */\n      calldataload\n        /* \"#utility.yul\":7503:7582   */\n      tag_246\n        /* \"#utility.yul\":7578:7581   */\n      dup5\n        /* \"#utility.yul\":7570:7576   */\n      dup3\n        /* \"#utility.yul\":7563:7567   */\n      0x20\n        /* \"#utility.yul\":7555:7561   */\n      dup7\n        /* \"#utility.yul\":7551:7568   */\n      add\n        /* \"#utility.yul\":7503:7582   */\n      tag_153\n      jump\t// in\n    tag_246:\n        /* \"#utility.yul\":7494:7582   */\n      swap2\n      pop\n        /* \"#utility.yul\":7310:7588   */\n      pop\n        /* \"#utility.yul\":7248:7588   */\n      swap3\n      swap2\n      pop\n      pop\n      jump\t// out\n        /* \"#utility.yul\":7594:8393   */\n    tag_55:\n        /* \"#utility.yul\":7681:7687   */\n      0x00\n        /* \"#utility.yul\":7689:7695   */\n      dup1\n        /* \"#utility.yul\":7697:7703   */\n      0x00\n        /* \"#utility.yul\":7746:7748   */\n      0x60\n        /* \"#utility.yul\":7734:7743   */\n      dup5\n        /* \"#utility.yul\":7725:7732   */\n      dup7\n        /* \"#utility.yul\":7721:7744   */\n      sub\n        /* \"#utility.yul\":7717:7749   */\n      slt\n        /* \"#utility.yul\":7714:7833   */\n      iszero\n      tag_248\n      jumpi\n        /* \"#utility.yul\":7752:7831   */\n      tag_249\n      tag_128\n      jump\t// in\n    tag_249:\n        /* \"#utility.yul\":7714:7833   */\n    tag_248:\n        /* \"#utility.yul\":7900:7901   */\n      0x00\n        /* \"#utility.yul\":7889:7898   */\n      dup5\n        /* \"#utility.yul\":7885:7902   */\n      add\n        /* \"#utility.yul\":7872:7903   */\n      calldataload\n        /* \"#utility.yul\":7930:7948   */\n      0xffffffffffffffff\n        /* \"#utility.yul\":7922:7928   */\n      dup2\n        /* \"#utility.yul\":7919:7949   */\n      gt\n        /* \"#utility.yul\":7916:8033   */\n      iszero\n      tag_250\n      jumpi\n        /* \"#utility.yul\":7952:8031   */\n      tag_251\n      tag_129\n      jump\t// in\n    tag_251:\n        /* \"#utility.yul\":7916:8033   */\n    tag_250:\n        /* \"#utility.yul\":8057:8120   */\n      tag_252\n        /* \"#utility.yul\":8112:8119   */\n      dup7\n        /* \"#utility.yul\":8103:8109   */\n      dup3\n        /* \"#utility.yul\":8092:8101   */\n      dup8\n        /* \"#utility.yul\":8088:8110   */\n      add\n        /* \"#utility.yul\":8057:8120   */\n      tag_154\n      jump\t// in\n    tag_252:\n        /* \"#utility.yul\":8047:8120   */\n      swap4\n      pop\n        /* \"#utility.yul\":7843:8130   */\n      pop\n        /* \"#utility.yul\":8169:8171   */\n      0x20\n        /* \"#utility.yul\":8195:8248   */\n      tag_253\n        /* \"#utility.yul\":8240:8247   */\n      dup7\n        /* \"#utility.yul\":8231:8237   */\n      dup3\n        /* \"#utility.yul\":8220:8229   */\n      dup8\n        /* \"#utility.yul\":8216:8238   */\n      add\n        /* \"#utility.yul\":8195:8248   */\n      tag_132\n      jump\t// in\n    tag_253:\n        /* \"#utility.yul\":8185:8248   */\n      swap3\n      pop\n        /* \"#utility.yul\":8140:8258   */\n      pop\n        /* \"#utility.yul\":8297:8299   */\n      0x40\n        /* \"#utility.yul\":8323:8376   */\n      tag_254\n        /* \"#utility.yul\":8368:8375   */\n      dup7\n        /* \"#utility.yul\":8359:8365   */\n      dup3\n        /* \"#utility.yul\":8348:8357   */\n      dup8\n        /* \"#utility.yul\":8344:8366   */\n      add\n        /* \"#utility.yul\":8323:8376   */\n      tag_136\n      jump\t// in\n    tag_254:\n        /* \"#utility.yul\":8313:8376   */\n      swap2\n      pop\n        /* \"#utility.yul\":8268:8386   */\n      pop\n        /* \"#utility.yul\":7594:8393   */\n      swap3\n      pop\n      swap3\n      pop\n      swap3\n      jump\t// out\n        /* \"#utility.yul\":8399:8579   */\n    tag_76:\n        /* \"#utility.yul\":8447:8524   */\n      0x4e487b7100000000000000000000000000000000000000000000000000000000\n        /* \"#utility.yul\":8444:8445   */\n      0x00\n        /* \"#utility.yul\":8437:8525   */\n      mstore\n        /* \"#utility.yul\":8544:8548   */\n      0x32\n        /* \"#utility.yul\":8541:8542   */\n      0x04\n        /* \"#utility.yul\":8534:8549   */\n      mstore\n        /* \"#utility.yul\":8568:8572   */\n      0x24\n        /* \"#utility.yul\":8565:8566   */\n      0x00\n        /* \"#utility.yul\":8558:8573   */\n      revert\n        /* \"#utility.yul\":8585:8765   */\n    tag_155:\n        /* \"#utility.yul\":8633:8710   */\n      0x4e487b7100000000000000000000000000000000000000000000000000000000\n        /* \"#utility.yul\":8630:8631   */\n      0x00\n        /* \"#utility.yul\":8623:8711   */\n      mstore\n        /* \"#utility.yul\":8730:8734   */\n      0x12\n        /* \"#utility.yul\":8727:8728   */\n      0x04\n        /* \"#utility.yul\":8720:8735   */\n      mstore\n        /* \"#utility.yul\":8754:8758   */\n      0x24\n        /* \"#utility.yul\":8751:8752   */\n      0x00\n        /* \"#utility.yul\":8744:8759   */\n      revert\n        /* \"#utility.yul\":8771:8951   */\n    tag_156:\n        /* \"#utility.yul\":8819:8896   */\n      0x4e487b7100000000000000000000000000000000000000000000000000000000\n        /* \"#utility.yul\":8816:8817   */\n      0x00\n        /* \"#utility.yul\":8809:8897   */\n      mstore\n        /* \"#utility.yul\":8916:8920   */\n      0x11\n        /* \"#utility.yul\":8913:8914   */\n      0x04\n        /* \"#utility.yul\":8906:8921   */\n      mstore\n        /* \"#utility.yul\":8940:8944   */\n      0x24\n        /* \"#utility.yul\":8937:8938   */\n      0x00\n        /* \"#utility.yul\":8930:8945   */\n      revert\n        /* \"#utility.yul\":8957:9142   */\n    tag_79:\n        /* \"#utility.yul\":8997:8998   */\n      0x00\n        /* \"#utility.yul\":9014:9034   */\n      tag_259\n        /* \"#utility.yul\":9032:9033   */\n      dup3\n        /* \"#utility.yul\":9014:9034   */\n      tag_130\n      jump\t// in\n    tag_259:\n        /* \"#utility.yul\":9009:9034   */\n      swap2\n      pop\n        /* \"#utility.yul\":9048:9068   */\n      tag_260\n        /* \"#utility.yul\":9066:9067   */\n      dup4\n        /* \"#utility.yul\":9048:9068   */\n      tag_130\n      jump\t// in\n    tag_260:\n        /* \"#utility.yul\":9043:9068   */\n      swap3\n      pop\n        /* \"#utility.yul\":9087:9088   */\n      dup3\n        /* \"#utility.yul\":9077:9112   */\n      tag_261\n      jumpi\n        /* \"#utility.yul\":9092:9110   */\n      tag_262\n      tag_155\n      jump\t// in\n    tag_262:\n        /* \"#utility.yul\":9077:9112   */\n    tag_261:\n        /* \"#utility.yul\":9134:9135   */\n      dup3\n        /* \"#utility.yul\":9131:9132   */\n      dup3\n        /* \"#utility.yul\":9127:9136   */\n      div\n        /* \"#utility.yul\":9122:9136   */\n      swap1\n      pop\n        /* \"#utility.yul\":8957:9142   */\n      swap3\n      swap2\n      pop\n      pop\n      jump\t// out\n        /* \"#utility.yul\":9148:9328   */\n    tag_157:\n        /* \"#utility.yul\":9196:9273   */\n      0x4e487b7100000000000000000000000000000000000000000000000000000000\n        /* \"#utility.yul\":9193:9194   */\n      0x00\n        /* \"#utility.yul\":9186:9274   */\n      mstore\n        /* \"#utility.yul\":9293:9297   */\n      0x22\n        /* \"#utility.yul\":9290:9291   */\n      0x04\n        /* \"#utility.yul\":9283:9298   */\n      mstore\n        /* \"#utility.yul\":9317:9321   */\n      0x24\n        /* \"#utility.yul\":9314:9315   */\n      0x00\n        /* \"#utility.yul\":9307:9322   */\n      revert\n        /* \"#utility.yul\":9334:9654   */\n    tag_89:\n        /* \"#utility.yul\":9378:9384   */\n      0x00\n        /* \"#utility.yul\":9415:9416   */\n      0x02\n        /* \"#utility.yul\":9409:9413   */\n      dup3\n        /* \"#utility.yul\":9405:9417   */\n      div\n        /* \"#utility.yul\":9395:9417   */\n      swap1\n      pop\n        /* \"#utility.yul\":9462:9463   */\n      0x01\n        /* \"#utility.yul\":9456:9460   */\n      dup3\n        /* \"#utility.yul\":9452:9464   */\n      and\n        /* \"#utility.yul\":9483:9501   */\n      dup1\n        /* \"#utility.yul\":9473:9554   */\n      tag_265\n      jumpi\n        /* \"#utility.yul\":9539:9543   */\n      0x7f\n        /* \"#utility.yul\":9531:9537   */\n      dup3\n        /* \"#utility.yul\":9527:9544   */\n      and\n        /* \"#utility.yul\":9517:9544   */\n      swap2\n      pop\n        /* \"#utility.yul\":9473:9554   */\n    tag_265:\n        /* \"#utility.yul\":9601:9603   */\n      0x20\n        /* \"#utility.yul\":9593:9599   */\n      dup3\n        /* \"#utility.yul\":9590:9604   */\n      lt\n        /* \"#utility.yul\":9570:9588   */\n      dup2\n        /* \"#utility.yul\":9567:9605   */\n      sub\n        /* \"#utility.yul\":9564:9648   */\n      tag_266\n      jumpi\n        /* \"#utility.yul\":9620:9638   */\n      tag_267\n      tag_157\n      jump\t// in\n    tag_267:\n        /* \"#utility.yul\":9564:9648   */\n    tag_266:\n        /* \"#utility.yul\":9385:9654   */\n      pop\n        /* \"#utility.yul\":9334:9654   */\n      swap2\n      swap1\n      pop\n      jump\t// out\n        /* \"#utility.yul\":9660:9893   */\n    tag_99:\n        /* \"#utility.yul\":9699:9702   */\n      0x00\n        /* \"#utility.yul\":9722:9746   */\n      tag_269\n        /* \"#utility.yul\":9740:9745   */\n      dup3\n        /* \"#utility.yul\":9722:9746   */\n      tag_130\n      jump\t// in\n    tag_269:\n        /* \"#utility.yul\":9713:9746   */\n      swap2\n      pop\n        /* \"#utility.yul\":9768:9834   */\n      0xffffffffffffffffffffffffffffffffffffffffffffffffffffffffffffffff\n        /* \"#utility.yul\":9761:9766   */\n      dup3\n        /* \"#utility.yul\":9758:9835   */\n      sub\n        /* \"#utility.yul\":9755:9858   */\n      tag_270\n      jumpi\n        /* \"#utility.yul\":9838:9856   */\n      tag_271\n      tag_156\n      jump\t// in\n    tag_271:\n        /* \"#utility.yul\":9755:9858   */\n    tag_270:\n        /* \"#utility.yul\":9885:9886   */\n      0x01\n        /* \"#utility.yul\":9878:9883   */\n      dup3\n        /* \"#utility.yul\":9874:9887   */\n      add\n        /* \"#utility.yul\":9867:9887   */\n      swap1\n      pop\n        /* \"#utility.yul\":9660:9893   */\n      swap2\n      swap1\n      pop\n      jump\t// out\n\n    auxdata: 0xa26469706673582212202c58ea999b800f28d60fe219f9c4eacca514fbd74d220e8220e90ad04bf46a9764736f6c634300080d0033\n}\n","bytecode":{"linkReferences":{},"object":"60806040523480156200001157600080fd5b50604051620011413803806200114183398181016040528101906200003791906200012c565b80600160006101000a81548173ffffffffffffffffffffffffffffffffffffffff021916908373ffffffffffffffffffffffffffffffffffffffff16021790555081600281905550505062000173565b600080fd5b6000819050919050565b620000a1816200008c565b8114620000ad57600080fd5b50565b600081519050620000c18162000096565b92915050565b600073ffffffffffffffffffffffffffffffffffffffff82169050919050565b6000620000f482620000c7565b9050919050565b6200010681620000e7565b81146200011257600080fd5b50565b6000815190506200012681620000fb565b92915050565b6000806040838503121562000146576200014562000087565b5b60006200015685828601620000b0565b9250506020620001698582860162000115565b9150509250929050565b610fbe80620001836000396000f3fe6080604052600436106100a75760003560e01c806382fde0931161006457806382fde093146101d85780638a9cfd5514610203578063937e09b11461022c5780639fb42b1f14610257578063d7bb99ba14610282578063d7d1bbdb1461028c576100a7565b806303441006146100ac5780630a144391146100d55780633410452a146101125780634051ddac1461013d578063481c6a751461016c57806381d12c5814610197575b600080fd5b3480156100b857600080fd5b506100d360048036038101906100ce91906109f6565b6102b5565b005b3480156100e157600080fd5b506100fc60048036038101906100f79190610a81565b6103fe565b6040516101099190610ac9565b60405180910390f35b34801561011e57600080fd5b5061012761041e565b6040516101349190610af3565b60405180910390f35b34801561014957600080fd5b5061015261042a565b604051610163959493929190610b1d565b60405180910390f35b34801561017857600080fd5b50610181610473565b60405161018e9190610b70565b60405180910390f35b3480156101a357600080fd5b506101be60048036038101906101b991906109f6565b610499565b6040516101cf959493929190610c24565b60405180910390f35b3480156101e457600080fd5b506101ed610594565b6040516101fa9190610af3565b60405180910390f35b34801561020f57600080fd5b5061022a60048036038101906102259190610db3565b61059a565b005b34801561023857600080fd5b506102416106df565b60405161024e9190610af3565b60405180910390f35b34801561026357600080fd5b5061026c6106e5565b6040516102799190610af3565b60405180910390f35b61028a6106eb565b005b34801561029857600080fd5b506102b360048036038101906102ae91906109f6565b6107bd565b005b600160009054906101000a900473ffffffffffffffffffffffffffffffffffffffff1673ffffffffffffffffffffffffffffffffffffffff163373ffffffffffffffffffffffffffffffffffffffff161461030f57600080fd5b600080828154811061032457610323610e22565b5b9060005260206000209060050201905060026005546103439190610eaf565b81600301541161035257600080fd5b8060020160149054906101000a900460ff161561036e57600080fd5b8060020160009054906101000a900473ffffffffffffffffffffffffffffffffffffffff1673ffffffffffffffffffffffffffffffffffffffff166108fc82600101549081150290604051600060405180830381858888f193505050501580156103dc573d6000803e3d6000fd5b5060018160020160146101000a81548160ff0219169083151502179055505050565b60046020528060005260406000206000915054906101000a900460ff1681565b60008080549050905090565b600080600080600060025447600080549050600554600160009054906101000a900473ffffffffffffffffffffffffffffffffffffffff16945094509450945094509091929394565b600160009054906101000a900473ffffffffffffffffffffffffffffffffffffffff1681565b600081815481106104a957600080fd5b90600052602060002090600502016000915090508060000180546104cc90610f0f565b80601f01602080910402602001604051908101604052809291908181526020018280546104f890610f0f565b80156105455780601f1061051a57610100808354040283529160200191610545565b820191906000526020600020905b81548152906001019060200180831161052857829003601f168201915b5050505050908060010154908060020160009054906101000a900473ffffffffffffffffffffffffffffffffffffffff16908060020160149054906101000a900460ff16908060030154905085565b60055481565b600160009054906101000a900473ffffffffffffffffffffffffffffffffffffffff1673ffffffffffffffffffffffffffffffffffffffff163373ffffffffffffffffffffffffffffffffffffffff16146105f457600080fd5b6000600181600181540180825580915050039060005260206000209050506000806003600081548092919061062890610f40565b919050558154811061063d5761063c610e22565b5b9060005260206000209060050201905083816000019080519060200190610665929190610909565b50828160010181905550818160020160006101000a81548173ffffffffffffffffffffffffffffffffffffffff021916908373ffffffffffffffffffffffffffffffffffffffff16021790555060008160020160146101000a81548160ff0219169083151502179055506000816003018190555050505050565b60025481565b60035481565b60025434116106f957600080fd5b600460003373ffffffffffffffffffffffffffffffffffffffff1673ffffffffffffffffffffffffffffffffffffffff16815260200190815260200160002060009054906101000a900460ff166107bb576001600460003373ffffffffffffffffffffffffffffffffffffffff1673ffffffffffffffffffffffffffffffffffffffff16815260200190815260200160002060006101000a81548160ff021916908315150217905550600560008154809291906107b590610f40565b91905055505b565b60008082815481106107d2576107d1610e22565b5b90600052602060002090600502019050600460003373ffffffffffffffffffffffffffffffffffffffff1673ffffffffffffffffffffffffffffffffffffffff16815260200190815260200160002060009054906101000a900460ff1661083857600080fd5b8060040160003373ffffffffffffffffffffffffffffffffffffffff1673ffffffffffffffffffffffffffffffffffffffff16815260200190815260200160002060009054906101000a900460ff161561089157600080fd5b60018160040160003373ffffffffffffffffffffffffffffffffffffffff1673ffffffffffffffffffffffffffffffffffffffff16815260200190815260200160002060006101000a81548160ff02191690831515021790555080600301600081548092919061090090610f40565b91905055505050565b82805461091590610f0f565b90600052602060002090601f016020900481019282610937576000855561097e565b82601f1061095057805160ff191683800117855561097e565b8280016001018555821561097e579182015b8281111561097d578251825591602001919060010190610962565b5b50905061098b919061098f565b5090565b5b808211156109a8576000816000905550600101610990565b5090565b6000604051905090565b600080fd5b600080fd5b6000819050919050565b6109d3816109c0565b81146109de57600080fd5b50565b6000813590506109f0816109ca565b92915050565b600060208284031215610a0c57610a0b6109b6565b5b6000610a1a848285016109e1565b91505092915050565b600073ffffffffffffffffffffffffffffffffffffffff82169050919050565b6000610a4e82610a23565b9050919050565b610a5e81610a43565b8114610a6957600080fd5b50565b600081359050610a7b81610a55565b92915050565b600060208284031215610a9757610a966109b6565b5b6000610aa584828501610a6c565b91505092915050565b60008115159050919050565b610ac381610aae565b82525050565b6000602082019050610ade6000830184610aba565b92915050565b610aed816109c0565b82525050565b6000602082019050610b086000830184610ae4565b92915050565b610b1781610a43565b82525050565b600060a082019050610b326000830188610ae4565b610b3f6020830187610ae4565b610b4c6040830186610ae4565b610b596060830185610ae4565b610b666080830184610b0e565b9695505050505050565b6000602082019050610b856000830184610b0e565b92915050565b600081519050919050565b600082825260208201905092915050565b60005b83811015610bc5578082015181840152602081019050610baa565b83811115610bd4576000848401525b50505050565b6000601f19601f8301169050919050565b6000610bf682610b8b565b610c008185610b96565b9350610c10818560208601610ba7565b610c1981610bda565b840191505092915050565b600060a0820190508181036000830152610c3e8188610beb565b9050610c4d6020830187610ae4565b610c5a6040830186610b0e565b610c676060830185610aba565b610c746080830184610ae4565b9695505050505050565b600080fd5b600080fd5b7f4e487b7100000000000000000000000000000000000000000000000000000000600052604160045260246000fd5b610cc082610bda565b810181811067ffffffffffffffff82111715610cdf57610cde610c88565b5b80604052505050565b6000610cf26109ac565b9050610cfe8282610cb7565b919050565b600067ffffffffffffffff821115610d1e57610d1d610c88565b5b610d2782610bda565b9050602081019050919050565b82818337600083830152505050565b6000610d56610d5184610d03565b610ce8565b905082815260208101848484011115610d7257610d71610c83565b5b610d7d848285610d34565b509392505050565b600082601f830112610d9a57610d99610c7e565b5b8135610daa848260208601610d43565b91505092915050565b600080600060608486031215610dcc57610dcb6109b6565b5b600084013567ffffffffffffffff811115610dea57610de96109bb565b5b610df686828701610d85565b9350506020610e07868287016109e1565b9250506040610e1886828701610a6c565b9150509250925092565b7f4e487b7100000000000000000000000000000000000000000000000000000000600052603260045260246000fd5b7f4e487b7100000000000000000000000000000000000000000000000000000000600052601260045260246000fd5b7f4e487b7100000000000000000000000000000000000000000000000000000000600052601160045260246000fd5b6000610eba826109c0565b9150610ec5836109c0565b925082610ed557610ed4610e51565b5b828204905092915050565b7f4e487b7100000000000000000000000000000000000000000000000000000000600052602260045260246000fd5b60006002820490506001821680610f2757607f821691505b602082108103610f3a57610f39610ee0565b5b50919050565b6000610f4b826109c0565b91507fffffffffffffffffffffffffffffffffffffffffffffffffffffffffffffffff8203610f7d57610f7c610e80565b5b60018201905091905056fea26469706673582212202c58ea999b800f28d60fe219f9c4eacca514fbd74d220e8220e90ad04bf46a9764736f6c634300080d0033","opcodes":"PUSH1 0x80 PUSH1 0x40 MSTORE CALLVALUE DUP1 ISZERO PUSH3 0x11 JUMPI PUSH1 0x0 DUP1 REVERT JUMPDEST POP PUSH1 0x40 MLOAD PUSH3 0x1141 CODESIZE SUB DUP1 PUSH3 0x1141 DUP4 CODECOPY DUP2 DUP2 ADD PUSH1 0x40 MSTORE DUP2 ADD SWAP1 PUSH3 0x37 SWAP2 SWAP1 PUSH3 0x12C JUMP JUMPDEST DUP1 PUSH1 0x1 PUSH1 0x0 PUSH2 0x100 EXP DUP2 SLOAD DUP2 PUSH20 0xFFFFFFFFFFFFFFFFFFFFFFFFFFFFFFFFFFFFFFFF MUL NOT AND SWAP1 DUP4 PUSH20 0xFFFFFFFFFFFFFFFFFFFFFFFFFFFFFFFFFFFFFFFF AND MUL OR SWAP1 SSTORE POP DUP2 PUSH1 0x2 DUP2 SWAP1 SSTORE POP POP POP PUSH3 0x173 JUMP JUMPDEST PUSH1 0x0 DUP1 REVERT JUMPDEST PUSH1 0x0 DUP2 SWAP1 POP SWAP2 SWAP1 POP JUMP JUMPDEST PUSH3 0xA1 DUP2 PUSH3 0x8C JUMP JUMPDEST DUP2 EQ PUSH3 0xAD JUMPI PUSH1 0x0 DUP1 REVERT JUMPDEST POP JUMP JUMPDEST PUSH1 0x0 DUP2 MLOAD SWAP1 POP PUSH3 0xC1 DUP2 PUSH3 0x96 JUMP JUMPDEST SWAP3 SWAP2 POP POP JUMP JUMPDEST PUSH1 0x0 PUSH20 0xFFFFFFFFFFFFFFFFFFFFFFFFFFFFFFFFFFFFFFFF DUP3 AND SWAP1 POP SWAP2 SWAP1 POP JUMP JUMPDEST PUSH1 0x0 PUSH3 0xF4 DUP3 PUSH3 0xC7 JUMP JUMPDEST SWAP1 POP SWAP2 SWAP1 POP JUMP JUMPDEST PUSH3 0x106 DUP2 PUSH3 0xE7 JUMP JUMPDEST DUP2 EQ PUSH3 0x112 JUMPI PUSH1 0x0 DUP1 REVERT JUMPDEST POP JUMP JUMPDEST PUSH1 0x0 DUP2 MLOAD SWAP1 POP PUSH3 0x126 DUP2 PUSH3 0xFB JUMP JUMPDEST SWAP3 SWAP2 POP POP JUMP JUMPDEST PUSH1 0x0 DUP1 PUSH1 0x40 DUP4 DUP6 SUB SLT ISZERO PUSH3 0x146 JUMPI PUSH3 0x145 PUSH3 0x87 JUMP JUMPDEST JUMPDEST PUSH1 0x0 PUSH3 0x156 DUP6 DUP3 DUP7 ADD PUSH3 0xB0 JUMP JUMPDEST SWAP3 POP POP PUSH1 0x20 PUSH3 0x169 DUP6 DUP3 DUP7 ADD PUSH3 0x115 JUMP JUMPDEST SWAP2 POP POP SWAP3 POP SWAP3 SWAP1 POP JUMP JUMPDEST PUSH2 0xFBE DUP1 PUSH3 0x183 PUSH1 0x0 CODECOPY PUSH1 0x0 RETURN INVALID PUSH1 0x80 PUSH1 0x40 MSTORE PUSH1 0x4 CALLDATASIZE LT PUSH2 0xA7 JUMPI PUSH1 0x0 CALLDATALOAD PUSH1 0xE0 SHR DUP1 PUSH4 0x82FDE093 GT PUSH2 0x64 JUMPI DUP1 PUSH4 0x82FDE093 EQ PUSH2 0x1D8 JUMPI DUP1 PUSH4 0x8A9CFD55 EQ PUSH2 0x203 JUMPI DUP1 PUSH4 0x937E09B1 EQ PUSH2 0x22C JUMPI DUP1 PUSH4 0x9FB42B1F EQ PUSH2 0x257 JUMPI DUP1 PUSH4 0xD7BB99BA EQ PUSH2 0x282 JUMPI DUP1 PUSH4 0xD7D1BBDB EQ PUSH2 0x28C JUMPI PUSH2 0xA7 JUMP JUMPDEST DUP1 PUSH4 0x3441006 EQ PUSH2 0xAC JUMPI DUP1 PUSH4 0xA144391 EQ PUSH2 0xD5 JUMPI DUP1 PUSH4 0x3410452A EQ PUSH2 0x112 JUMPI DUP1 PUSH4 0x4051DDAC EQ PUSH2 0x13D JUMPI DUP1 PUSH4 0x481C6A75 EQ PUSH2 0x16C JUMPI DUP1 PUSH4 0x81D12C58 EQ PUSH2 0x197 JUMPI JUMPDEST PUSH1 0x0 DUP1 REVERT JUMPDEST CALLVALUE DUP1 ISZERO PUSH2 0xB8 JUMPI PUSH1 0x0 DUP1 REVERT JUMPDEST POP PUSH2 0xD3 PUSH1 0x4 DUP1 CALLDATASIZE SUB DUP2 ADD SWAP1 PUSH2 0xCE SWAP2 SWAP1 PUSH2 0x9F6 JUMP JUMPDEST PUSH2 0x2B5 JUMP JUMPDEST STOP JUMPDEST CALLVALUE DUP1 ISZERO PUSH2 0xE1 JUMPI PUSH1 0x0 DUP1 REVERT JUMPDEST POP PUSH2 0xFC PUSH1 0x4 DUP1 CALLDATASIZE SUB DUP2 ADD SWAP1 PUSH2 0xF7 SWAP2 SWAP1 PUSH2 0xA81 JUMP JUMPDEST PUSH2 0x3FE JUMP JUMPDEST PUSH1 0x40 MLOAD PUSH2 0x109 SWAP2 SWAP1 PUSH2 0xAC9 JUMP JUMPDEST PUSH1 0x40 MLOAD DUP1 SWAP2 SUB SWAP1 RETURN JUMPDEST CALLVALUE DUP1 ISZERO PUSH2 0x11E JUMPI PUSH1 0x0 DUP1 REVERT JUMPDEST POP PUSH2 0x127 PUSH2 0x41E JUMP JUMPDEST PUSH1 0x40 MLOAD PUSH2 0x134 SWAP2 SWAP1 PUSH2 0xAF3 JUMP JUMPDEST PUSH1 0x40 MLOAD DUP1 SWAP2 SUB SWAP1 RETURN JUMPDEST CALLVALUE DUP1 ISZERO PUSH2 0x149 JUMPI PUSH1 0x0 DUP1 REVERT JUMPDEST POP PUSH2 0x152 PUSH2 0x42A JUMP JUMPDEST PUSH1 0x40 MLOAD PUSH2 0x163 SWAP6 SWAP5 SWAP4 SWAP3 SWAP2 SWAP1 PUSH2 0xB1D JUMP JUMPDEST PUSH1 0x40 MLOAD DUP1 SWAP2 SUB SWAP1 RETURN JUMPDEST CALLVALUE DUP1 ISZERO PUSH2 0x178 JUMPI PUSH1 0x0 DUP1 REVERT JUMPDEST POP PUSH2 0x181 PUSH2 0x473 JUMP JUMPDEST PUSH1 0x40 MLOAD PUSH2 0x18E SWAP2 SWAP1 PUSH2 0xB70 JUMP JUMPDEST PUSH1 0x40 MLOAD DUP1 SWAP2 SUB SWAP1 RETURN JUMPDEST CALLVALUE DUP1 ISZERO PUSH2 0x1A3 JUMPI PUSH1 0x0 DUP1 REVERT JUMPDEST POP PUSH2 0x1BE PUSH1 0x4 DUP1 CALLDATASIZE SUB DUP2 ADD SWAP1 PUSH2 0x1B9 SWAP2 SWAP1 PUSH2 0x9F6 JUMP JUMPDEST PUSH2 0x499 JUMP JUMPDEST PUSH1 0x40 MLOAD PUSH2 0x1CF SWAP6 SWAP5 SWAP4 SWAP3 SWAP2 SWAP1 PUSH2 0xC24 JUMP JUMPDEST PUSH1 0x40 MLOAD DUP1 SWAP2 SUB SWAP1 RETURN JUMPDEST CALLVALUE DUP1 ISZERO PUSH2 0x1E4 JUMPI PUSH1 0x0 DUP1 REVERT JUMPDEST POP PUSH2 0x1ED PUSH2 0x594 JUMP JUMPDEST PUSH1 0x40 MLOAD PUSH2 0x1FA SWAP2 SWAP1 PUSH2 0xAF3 JUMP JUMPDEST PUSH1 0x40 MLOAD DUP1 SWAP2 SUB SWAP1 RETURN JUMPDEST CALLVALUE DUP1 ISZERO PUSH2 0x20F JUMPI PUSH1 0x0 DUP1 REVERT JUMPDEST POP PUSH2 0x22A PUSH1 0x4 DUP1 CALLDATASIZE SUB DUP2 ADD SWAP1 PUSH2 0x225 SWAP2 SWAP1 PUSH2 0xDB3 JUMP JUMPDEST PUSH2 0x59A JUMP JUMPDEST STOP JUMPDEST CALLVALUE DUP1 ISZERO PUSH2 0x238 JUMPI PUSH1 0x0 DUP1 REVERT JUMPDEST POP PUSH2 0x241 PUSH2 0x6DF JUMP JUMPDEST PUSH1 0x40 MLOAD PUSH2 0x24E SWAP2 SWAP1 PUSH2 0xAF3 JUMP JUMPDEST PUSH1 0x40 MLOAD DUP1 SWAP2 SUB SWAP1 RETURN JUMPDEST CALLVALUE DUP1 ISZERO PUSH2 0x263 JUMPI PUSH1 0x0 DUP1 REVERT JUMPDEST POP PUSH2 0x26C PUSH2 0x6E5 JUMP JUMPDEST PUSH1 0x40 MLOAD PUSH2 0x279 SWAP2 SWAP1 PUSH2 0xAF3 JUMP JUMPDEST PUSH1 0x40 MLOAD DUP1 SWAP2 SUB SWAP1 RETURN JUMPDEST PUSH2 0x28A PUSH2 0x6EB JUMP JUMPDEST STOP JUMPDEST CALLVALUE DUP1 ISZERO PUSH2 0x298 JUMPI PUSH1 0x0 DUP1 REVERT JUMPDEST POP PUSH2 0x2B3 PUSH1 0x4 DUP1 CALLDATASIZE SUB DUP2 ADD SWAP1 PUSH2 0x2AE SWAP2 SWAP1 PUSH2 0x9F6 JUMP JUMPDEST PUSH2 0x7BD JUMP JUMPDEST STOP JUMPDEST PUSH1 0x1 PUSH1 0x0 SWAP1 SLOAD SWAP1 PUSH2 0x100 EXP SWAP1 DIV PUSH20 0xFFFFFFFFFFFFFFFFFFFFFFFFFFFFFFFFFFFFFFFF AND PUSH20 0xFFFFFFFFFFFFFFFFFFFFFFFFFFFFFFFFFFFFFFFF AND CALLER PUSH20 0xFFFFFFFFFFFFFFFFFFFFFFFFFFFFFFFFFFFFFFFF AND EQ PUSH2 0x30F JUMPI PUSH1 0x0 DUP1 REVERT JUMPDEST PUSH1 0x0 DUP1 DUP3 DUP2 SLOAD DUP2 LT PUSH2 0x324 JUMPI PUSH2 0x323 PUSH2 0xE22 JUMP JUMPDEST JUMPDEST SWAP1 PUSH1 0x0 MSTORE PUSH1 0x20 PUSH1 0x0 KECCAK256 SWAP1 PUSH1 0x5 MUL ADD SWAP1 POP PUSH1 0x2 PUSH1 0x5 SLOAD PUSH2 0x343 SWAP2 SWAP1 PUSH2 0xEAF JUMP JUMPDEST DUP2 PUSH1 0x3 ADD SLOAD GT PUSH2 0x352 JUMPI PUSH1 0x0 DUP1 REVERT JUMPDEST DUP1 PUSH1 0x2 ADD PUSH1 0x14 SWAP1 SLOAD SWAP1 PUSH2 0x100 EXP SWAP1 DIV PUSH1 0xFF AND ISZERO PUSH2 0x36E JUMPI PUSH1 0x0 DUP1 REVERT JUMPDEST DUP1 PUSH1 0x2 ADD PUSH1 0x0 SWAP1 SLOAD SWAP1 PUSH2 0x100 EXP SWAP1 DIV PUSH20 0xFFFFFFFFFFFFFFFFFFFFFFFFFFFFFFFFFFFFFFFF AND PUSH20 0xFFFFFFFFFFFFFFFFFFFFFFFFFFFFFFFFFFFFFFFF AND PUSH2 0x8FC DUP3 PUSH1 0x1 ADD SLOAD SWAP1 DUP2 ISZERO MUL SWAP1 PUSH1 0x40 MLOAD PUSH1 0x0 PUSH1 0x40 MLOAD DUP1 DUP4 SUB DUP2 DUP6 DUP9 DUP9 CALL SWAP4 POP POP POP POP ISZERO DUP1 ISZERO PUSH2 0x3DC JUMPI RETURNDATASIZE PUSH1 0x0 DUP1 RETURNDATACOPY RETURNDATASIZE PUSH1 0x0 REVERT JUMPDEST POP PUSH1 0x1 DUP2 PUSH1 0x2 ADD PUSH1 0x14 PUSH2 0x100 EXP DUP2 SLOAD DUP2 PUSH1 0xFF MUL NOT AND SWAP1 DUP4 ISZERO ISZERO MUL OR SWAP1 SSTORE POP POP POP JUMP JUMPDEST PUSH1 0x4 PUSH1 0x20 MSTORE DUP1 PUSH1 0x0 MSTORE PUSH1 0x40 PUSH1 0x0 KECCAK256 PUSH1 0x0 SWAP2 POP SLOAD SWAP1 PUSH2 0x100 EXP SWAP1 DIV PUSH1 0xFF AND DUP2 JUMP JUMPDEST PUSH1 0x0 DUP1 DUP1 SLOAD SWAP1 POP SWAP1 POP SWAP1 JUMP JUMPDEST PUSH1 0x0 DUP1 PUSH1 0x0 DUP1 PUSH1 0x0 PUSH1 0x2 SLOAD SELFBALANCE PUSH1 0x0 DUP1 SLOAD SWAP1 POP PUSH1 0x5 SLOAD PUSH1 0x1 PUSH1 0x0 SWAP1 SLOAD SWAP1 PUSH2 0x100 EXP SWAP1 DIV PUSH20 0xFFFFFFFFFFFFFFFFFFFFFFFFFFFFFFFFFFFFFFFF AND SWAP5 POP SWAP5 POP SWAP5 POP SWAP5 POP SWAP5 POP SWAP1 SWAP2 SWAP3 SWAP4 SWAP5 JUMP JUMPDEST PUSH1 0x1 PUSH1 0x0 SWAP1 SLOAD SWAP1 PUSH2 0x100 EXP SWAP1 DIV PUSH20 0xFFFFFFFFFFFFFFFFFFFFFFFFFFFFFFFFFFFFFFFF AND DUP2 JUMP JUMPDEST PUSH1 0x0 DUP2 DUP2 SLOAD DUP2 LT PUSH2 0x4A9 JUMPI PUSH1 0x0 DUP1 REVERT JUMPDEST SWAP1 PUSH1 0x0 MSTORE PUSH1 0x20 PUSH1 0x0 KECCAK256 SWAP1 PUSH1 0x5 MUL ADD PUSH1 0x0 SWAP2 POP SWAP1 POP DUP1 PUSH1 0x0 ADD DUP1 SLOAD PUSH2 0x4CC SWAP1 PUSH2 0xF0F JUMP JUMPDEST DUP1 PUSH1 0x1F ADD PUSH1 0x20 DUP1 SWAP2 DIV MUL PUSH1 0x20 ADD PUSH1 0x40 MLOAD SWAP1 DUP2 ADD PUSH1 0x40 MSTORE DUP1 SWAP3 SWAP2 SWAP1 DUP2 DUP2 MSTORE PUSH1 0x20 ADD DUP3 DUP1 SLOAD PUSH2 0x4F8 SWAP1 PUSH2 0xF0F JUMP JUMPDEST DUP1 ISZERO PUSH2 0x545 JUMPI DUP1 PUSH1 0x1F LT PUSH2 0x51A JUMPI PUSH2 0x100 DUP1 DUP4 SLOAD DIV MUL DUP4 MSTORE SWAP2 PUSH1 0x20 ADD SWAP2 PUSH2 0x545 JUMP JUMPDEST DUP3 ADD SWAP2 SWAP1 PUSH1 0x0 MSTORE PUSH1 0x20 PUSH1 0x0 KECCAK256 SWAP1 JUMPDEST DUP2 SLOAD DUP2 MSTORE SWAP1 PUSH1 0x1 ADD SWAP1 PUSH1 0x20 ADD DUP1 DUP4 GT PUSH2 0x528 JUMPI DUP3 SWAP1 SUB PUSH1 0x1F AND DUP3 ADD SWAP2 JUMPDEST POP POP POP POP POP SWAP1 DUP1 PUSH1 0x1 ADD SLOAD SWAP1 DUP1 PUSH1 0x2 ADD PUSH1 0x0 SWAP1 SLOAD SWAP1 PUSH2 0x100 EXP SWAP1 DIV PUSH20 0xFFFFFFFFFFFFFFFFFFFFFFFFFFFFFFFFFFFFFFFF AND SWAP1 DUP1 PUSH1 0x2 ADD PUSH1 0x14 SWAP1 SLOAD SWAP1 PUSH2 0x100 EXP SWAP1 DIV PUSH1 0xFF AND SWAP1 DUP1 PUSH1 0x3 ADD SLOAD SWAP1 POP DUP6 JUMP JUMPDEST PUSH1 0x5 SLOAD DUP2 JUMP JUMPDEST PUSH1 0x1 PUSH1 0x0 SWAP1 SLOAD SWAP1 PUSH2 0x100 EXP SWAP1 DIV PUSH20 0xFFFFFFFFFFFFFFFFFFFFFFFFFFFFFFFFFFFFFFFF AND PUSH20 0xFFFFFFFFFFFFFFFFFFFFFFFFFFFFFFFFFFFFFFFF AND CALLER PUSH20 0xFFFFFFFFFFFFFFFFFFFFFFFFFFFFFFFFFFFFFFFF AND EQ PUSH2 0x5F4 JUMPI PUSH1 0x0 DUP1 REVERT JUMPDEST PUSH1 0x0 PUSH1 0x1 DUP2 PUSH1 0x1 DUP2 SLOAD ADD DUP1 DUP3 SSTORE DUP1 SWAP2 POP POP SUB SWAP1 PUSH1 0x0 MSTORE PUSH1 0x20 PUSH1 0x0 KECCAK256 SWAP1 POP POP PUSH1 0x0 DUP1 PUSH1 0x3 PUSH1 0x0 DUP2 SLOAD DUP1 SWAP3 SWAP2 SWAP1 PUSH2 0x628 SWAP1 PUSH2 0xF40 JUMP JUMPDEST SWAP2 SWAP1 POP SSTORE DUP2 SLOAD DUP2 LT PUSH2 0x63D JUMPI PUSH2 0x63C PUSH2 0xE22 JUMP JUMPDEST JUMPDEST SWAP1 PUSH1 0x0 MSTORE PUSH1 0x20 PUSH1 0x0 KECCAK256 SWAP1 PUSH1 0x5 MUL ADD SWAP1 POP DUP4 DUP2 PUSH1 0x0 ADD SWAP1 DUP1 MLOAD SWAP1 PUSH1 0x20 ADD SWAP1 PUSH2 0x665 SWAP3 SWAP2 SWAP1 PUSH2 0x909 JUMP JUMPDEST POP DUP3 DUP2 PUSH1 0x1 ADD DUP2 SWAP1 SSTORE POP DUP2 DUP2 PUSH1 0x2 ADD PUSH1 0x0 PUSH2 0x100 EXP DUP2 SLOAD DUP2 PUSH20 0xFFFFFFFFFFFFFFFFFFFFFFFFFFFFFFFFFFFFFFFF MUL NOT AND SWAP1 DUP4 PUSH20 0xFFFFFFFFFFFFFFFFFFFFFFFFFFFFFFFFFFFFFFFF AND MUL OR SWAP1 SSTORE POP PUSH1 0x0 DUP2 PUSH1 0x2 ADD PUSH1 0x14 PUSH2 0x100 EXP DUP2 SLOAD DUP2 PUSH1 0xFF MUL NOT AND SWAP1 DUP4 ISZERO ISZERO MUL OR SWAP1 SSTORE POP PUSH1 0x0 DUP2 PUSH1 0x3 ADD DUP2 SWAP1 SSTORE POP POP POP POP POP JUMP JUMPDEST PUSH1 0x2 SLOAD DUP2 JUMP JUMPDEST PUSH1 0x3 SLOAD DUP2 JUMP JUMPDEST PUSH1 0x2 SLOAD CALLVALUE GT PUSH2 0x6F9 JUMPI PUSH1 0x0 DUP1 REVERT JUMPDEST PUSH1 0x4 PUSH1 0x0 CALLER PUSH20 0xFFFFFFFFFFFFFFFFFFFFFFFFFFFFFFFFFFFFFFFF AND PUSH20 0xFFFFFFFFFFFFFFFFFFFFFFFFFFFFFFFFFFFFFFFF AND DUP2 MSTORE PUSH1 0x20 ADD SWAP1 DUP2 MSTORE PUSH1 0x20 ADD PUSH1 0x0 KECCAK256 PUSH1 0x0 SWAP1 SLOAD SWAP1 PUSH2 0x100 EXP SWAP1 DIV PUSH1 0xFF AND PUSH2 0x7BB JUMPI PUSH1 0x1 PUSH1 0x4 PUSH1 0x0 CALLER PUSH20 0xFFFFFFFFFFFFFFFFFFFFFFFFFFFFFFFFFFFFFFFF AND PUSH20 0xFFFFFFFFFFFFFFFFFFFFFFFFFFFFFFFFFFFFFFFF AND DUP2 MSTORE PUSH1 0x20 ADD SWAP1 DUP2 MSTORE PUSH1 0x20 ADD PUSH1 0x0 KECCAK256 PUSH1 0x0 PUSH2 0x100 EXP DUP2 SLOAD DUP2 PUSH1 0xFF MUL NOT AND SWAP1 DUP4 ISZERO ISZERO MUL OR SWAP1 SSTORE POP PUSH1 0x5 PUSH1 0x0 DUP2 SLOAD DUP1 SWAP3 SWAP2 SWAP1 PUSH2 0x7B5 SWAP1 PUSH2 0xF40 JUMP JUMPDEST SWAP2 SWAP1 POP SSTORE POP JUMPDEST JUMP JUMPDEST PUSH1 0x0 DUP1 DUP3 DUP2 SLOAD DUP2 LT PUSH2 0x7D2 JUMPI PUSH2 0x7D1 PUSH2 0xE22 JUMP JUMPDEST JUMPDEST SWAP1 PUSH1 0x0 MSTORE PUSH1 0x20 PUSH1 0x0 KECCAK256 SWAP1 PUSH1 0x5 MUL ADD SWAP1 POP PUSH1 0x4 PUSH1 0x0 CALLER PUSH20 0xFFFFFFFFFFFFFFFFFFFFFFFFFFFFFFFFFFFFFFFF AND PUSH20 0xFFFFFFFFFFFFFFFFFFFFFFFFFFFFFFFFFFFFFFFF AND DUP2 MSTORE PUSH1 0x20 ADD SWAP1 DUP2 MSTORE PUSH1 0x20 ADD PUSH1 0x0 KECCAK256 PUSH1 0x0 SWAP1 SLOAD SWAP1 PUSH2 0x100 EXP SWAP1 DIV PUSH1 0xFF AND PUSH2 0x838 JUMPI PUSH1 0x0 DUP1 REVERT JUMPDEST DUP1 PUSH1 0x4 ADD PUSH1 0x0 CALLER PUSH20 0xFFFFFFFFFFFFFFFFFFFFFFFFFFFFFFFFFFFFFFFF AND PUSH20 0xFFFFFFFFFFFFFFFFFFFFFFFFFFFFFFFFFFFFFFFF AND DUP2 MSTORE PUSH1 0x20 ADD SWAP1 DUP2 MSTORE PUSH1 0x20 ADD PUSH1 0x0 KECCAK256 PUSH1 0x0 SWAP1 SLOAD SWAP1 PUSH2 0x100 EXP SWAP1 DIV PUSH1 0xFF AND ISZERO PUSH2 0x891 JUMPI PUSH1 0x0 DUP1 REVERT JUMPDEST PUSH1 0x1 DUP2 PUSH1 0x4 ADD PUSH1 0x0 CALLER PUSH20 0xFFFFFFFFFFFFFFFFFFFFFFFFFFFFFFFFFFFFFFFF AND PUSH20 0xFFFFFFFFFFFFFFFFFFFFFFFFFFFFFFFFFFFFFFFF AND DUP2 MSTORE PUSH1 0x20 ADD SWAP1 DUP2 MSTORE PUSH1 0x20 ADD PUSH1 0x0 KECCAK256 PUSH1 0x0 PUSH2 0x100 EXP DUP2 SLOAD DUP2 PUSH1 0xFF MUL NOT AND SWAP1 DUP4 ISZERO ISZERO MUL OR SWAP1 SSTORE POP DUP1 PUSH1 0x3 ADD PUSH1 0x0 DUP2 SLOAD DUP1 SWAP3 SWAP2 SWAP1 PUSH2 0x900 SWAP1 PUSH2 0xF40 JUMP JUMPDEST SWAP2 SWAP1 POP SSTORE POP POP POP JUMP JUMPDEST DUP3 DUP1 SLOAD PUSH2 0x915 SWAP1 PUSH2 0xF0F JUMP JUMPDEST SWAP1 PUSH1 0x0 MSTORE PUSH1 0x20 PUSH1 0x0 KECCAK256 SWAP1 PUSH1 0x1F ADD PUSH1 0x20 SWAP1 DIV DUP2 ADD SWAP3 DUP3 PUSH2 0x937 JUMPI PUSH1 0x0 DUP6 SSTORE PUSH2 0x97E JUMP JUMPDEST DUP3 PUSH1 0x1F LT PUSH2 0x950 JUMPI DUP1 MLOAD PUSH1 0xFF NOT AND DUP4 DUP1 ADD OR DUP6 SSTORE PUSH2 0x97E JUMP JUMPDEST DUP3 DUP1 ADD PUSH1 0x1 ADD DUP6 SSTORE DUP3 ISZERO PUSH2 0x97E JUMPI SWAP2 DUP3 ADD JUMPDEST DUP3 DUP2 GT ISZERO PUSH2 0x97D JUMPI DUP3 MLOAD DUP3 SSTORE SWAP2 PUSH1 0x20 ADD SWAP2 SWAP1 PUSH1 0x1 ADD SWAP1 PUSH2 0x962 JUMP JUMPDEST JUMPDEST POP SWAP1 POP PUSH2 0x98B SWAP2 SWAP1 PUSH2 0x98F JUMP JUMPDEST POP SWAP1 JUMP JUMPDEST JUMPDEST DUP1 DUP3 GT ISZERO PUSH2 0x9A8 JUMPI PUSH1 0x0 DUP2 PUSH1 0x0 SWAP1 SSTORE POP PUSH1 0x1 ADD PUSH2 0x990 JUMP JUMPDEST POP SWAP1 JUMP JUMPDEST PUSH1 0x0 PUSH1 0x40 MLOAD SWAP1 POP SWAP1 JUMP JUMPDEST PUSH1 0x0 DUP1 REVERT JUMPDEST PUSH1 0x0 DUP1 REVERT JUMPDEST PUSH1 0x0 DUP2 SWAP1 POP SWAP2 SWAP1 POP JUMP JUMPDEST PUSH2 0x9D3 DUP2 PUSH2 0x9C0 JUMP JUMPDEST DUP2 EQ PUSH2 0x9DE JUMPI PUSH1 0x0 DUP1 REVERT JUMPDEST POP JUMP JUMPDEST PUSH1 0x0 DUP2 CALLDATALOAD SWAP1 POP PUSH2 0x9F0 DUP2 PUSH2 0x9CA JUMP JUMPDEST SWAP3 SWAP2 POP POP JUMP JUMPDEST PUSH1 0x0 PUSH1 0x20 DUP3 DUP5 SUB SLT ISZERO PUSH2 0xA0C JUMPI PUSH2 0xA0B PUSH2 0x9B6 JUMP JUMPDEST JUMPDEST PUSH1 0x0 PUSH2 0xA1A DUP5 DUP3 DUP6 ADD PUSH2 0x9E1 JUMP JUMPDEST SWAP2 POP POP SWAP3 SWAP2 POP POP JUMP JUMPDEST PUSH1 0x0 PUSH20 0xFFFFFFFFFFFFFFFFFFFFFFFFFFFFFFFFFFFFFFFF DUP3 AND SWAP1 POP SWAP2 SWAP1 POP JUMP JUMPDEST PUSH1 0x0 PUSH2 0xA4E DUP3 PUSH2 0xA23 JUMP JUMPDEST SWAP1 POP SWAP2 SWAP1 POP JUMP JUMPDEST PUSH2 0xA5E DUP2 PUSH2 0xA43 JUMP JUMPDEST DUP2 EQ PUSH2 0xA69 JUMPI PUSH1 0x0 DUP1 REVERT JUMPDEST POP JUMP JUMPDEST PUSH1 0x0 DUP2 CALLDATALOAD SWAP1 POP PUSH2 0xA7B DUP2 PUSH2 0xA55 JUMP JUMPDEST SWAP3 SWAP2 POP POP JUMP JUMPDEST PUSH1 0x0 PUSH1 0x20 DUP3 DUP5 SUB SLT ISZERO PUSH2 0xA97 JUMPI PUSH2 0xA96 PUSH2 0x9B6 JUMP JUMPDEST JUMPDEST PUSH1 0x0 PUSH2 0xAA5 DUP5 DUP3 DUP6 ADD PUSH2 0xA6C JUMP JUMPDEST SWAP2 POP POP SWAP3 SWAP2 POP POP JUMP JUMPDEST PUSH1 0x0 DUP2 ISZERO ISZERO SWAP1 POP SWAP2 SWAP1 POP JUMP JUMPDEST PUSH2 0xAC3 DUP2 PUSH2 0xAAE JUMP JUMPDEST DUP3 MSTORE POP POP JUMP JUMPDEST PUSH1 0x0 PUSH1 0x20 DUP3 ADD SWAP1 POP PUSH2 0xADE PUSH1 0x0 DUP4 ADD DUP5 PUSH2 0xABA JUMP JUMPDEST SWAP3 SWAP2 POP POP JUMP JUMPDEST PUSH2 0xAED DUP2 PUSH2 0x9C0 JUMP JUMPDEST DUP3 MSTORE POP POP JUMP JUMPDEST PUSH1 0x0 PUSH1 0x20 DUP3 ADD SWAP1 POP PUSH2 0xB08 PUSH1 0x0 DUP4 ADD DUP5 PUSH2 0xAE4 JUMP JUMPDEST SWAP3 SWAP2 POP POP JUMP JUMPDEST PUSH2 0xB17 DUP2 PUSH2 0xA43 JUMP JUMPDEST DUP3 MSTORE POP POP JUMP JUMPDEST PUSH1 0x0 PUSH1 0xA0 DUP3 ADD SWAP1 POP PUSH2 0xB32 PUSH1 0x0 DUP4 ADD DUP9 PUSH2 0xAE4 JUMP JUMPDEST PUSH2 0xB3F PUSH1 0x20 DUP4 ADD DUP8 PUSH2 0xAE4 JUMP JUMPDEST PUSH2 0xB4C PUSH1 0x40 DUP4 ADD DUP7 PUSH2 0xAE4 JUMP JUMPDEST PUSH2 0xB59 PUSH1 0x60 DUP4 ADD DUP6 PUSH2 0xAE4 JUMP JUMPDEST PUSH2 0xB66 PUSH1 0x80 DUP4 ADD DUP5 PUSH2 0xB0E JUMP JUMPDEST SWAP7 SWAP6 POP POP POP POP POP POP JUMP JUMPDEST PUSH1 0x0 PUSH1 0x20 DUP3 ADD SWAP1 POP PUSH2 0xB85 PUSH1 0x0 DUP4 ADD DUP5 PUSH2 0xB0E JUMP JUMPDEST SWAP3 SWAP2 POP POP JUMP JUMPDEST PUSH1 0x0 DUP2 MLOAD SWAP1 POP SWAP2 SWAP1 POP JUMP JUMPDEST PUSH1 0x0 DUP3 DUP3 MSTORE PUSH1 0x20 DUP3 ADD SWAP1 POP SWAP3 SWAP2 POP POP JUMP JUMPDEST PUSH1 0x0 JUMPDEST DUP4 DUP2 LT ISZERO PUSH2 0xBC5 JUMPI DUP1 DUP3 ADD MLOAD DUP2 DUP5 ADD MSTORE PUSH1 0x20 DUP2 ADD SWAP1 POP PUSH2 0xBAA JUMP JUMPDEST DUP4 DUP2 GT ISZERO PUSH2 0xBD4 JUMPI PUSH1 0x0 DUP5 DUP5 ADD MSTORE JUMPDEST POP POP POP POP JUMP JUMPDEST PUSH1 0x0 PUSH1 0x1F NOT PUSH1 0x1F DUP4 ADD AND SWAP1 POP SWAP2 SWAP1 POP JUMP JUMPDEST PUSH1 0x0 PUSH2 0xBF6 DUP3 PUSH2 0xB8B JUMP JUMPDEST PUSH2 0xC00 DUP2 DUP6 PUSH2 0xB96 JUMP JUMPDEST SWAP4 POP PUSH2 0xC10 DUP2 DUP6 PUSH1 0x20 DUP7 ADD PUSH2 0xBA7 JUMP JUMPDEST PUSH2 0xC19 DUP2 PUSH2 0xBDA JUMP JUMPDEST DUP5 ADD SWAP2 POP POP SWAP3 SWAP2 POP POP JUMP JUMPDEST PUSH1 0x0 PUSH1 0xA0 DUP3 ADD SWAP1 POP DUP2 DUP2 SUB PUSH1 0x0 DUP4 ADD MSTORE PUSH2 0xC3E DUP2 DUP9 PUSH2 0xBEB JUMP JUMPDEST SWAP1 POP PUSH2 0xC4D PUSH1 0x20 DUP4 ADD DUP8 PUSH2 0xAE4 JUMP JUMPDEST PUSH2 0xC5A PUSH1 0x40 DUP4 ADD DUP7 PUSH2 0xB0E JUMP JUMPDEST PUSH2 0xC67 PUSH1 0x60 DUP4 ADD DUP6 PUSH2 0xABA JUMP JUMPDEST PUSH2 0xC74 PUSH1 0x80 DUP4 ADD DUP5 PUSH2 0xAE4 JUMP JUMPDEST SWAP7 SWAP6 POP POP POP POP POP POP JUMP JUMPDEST PUSH1 0x0 DUP1 REVERT JUMPDEST PUSH1 0x0 DUP1 REVERT JUMPDEST PUSH32 0x4E487B7100000000000000000000000000000000000000000000000000000000 PUSH1 0x0 MSTORE PUSH1 0x41 PUSH1 0x4 MSTORE PUSH1 0x24 PUSH1 0x0 REVERT JUMPDEST PUSH2 0xCC0 DUP3 PUSH2 0xBDA JUMP JUMPDEST DUP2 ADD DUP2 DUP2 LT PUSH8 0xFFFFFFFFFFFFFFFF DUP3 GT OR ISZERO PUSH2 0xCDF JUMPI PUSH2 0xCDE PUSH2 0xC88 JUMP JUMPDEST JUMPDEST DUP1 PUSH1 0x40 MSTORE POP POP POP JUMP JUMPDEST PUSH1 0x0 PUSH2 0xCF2 PUSH2 0x9AC JUMP JUMPDEST SWAP1 POP PUSH2 0xCFE DUP3 DUP3 PUSH2 0xCB7 JUMP JUMPDEST SWAP2 SWAP1 POP JUMP JUMPDEST PUSH1 0x0 PUSH8 0xFFFFFFFFFFFFFFFF DUP3 GT ISZERO PUSH2 0xD1E JUMPI PUSH2 0xD1D PUSH2 0xC88 JUMP JUMPDEST JUMPDEST PUSH2 0xD27 DUP3 PUSH2 0xBDA JUMP JUMPDEST SWAP1 POP PUSH1 0x20 DUP2 ADD SWAP1 POP SWAP2 SWAP1 POP JUMP JUMPDEST DUP3 DUP2 DUP4 CALLDATACOPY PUSH1 0x0 DUP4 DUP4 ADD MSTORE POP POP POP JUMP JUMPDEST PUSH1 0x0 PUSH2 0xD56 PUSH2 0xD51 DUP5 PUSH2 0xD03 JUMP JUMPDEST PUSH2 0xCE8 JUMP JUMPDEST SWAP1 POP DUP3 DUP2 MSTORE PUSH1 0x20 DUP2 ADD DUP5 DUP5 DUP5 ADD GT ISZERO PUSH2 0xD72 JUMPI PUSH2 0xD71 PUSH2 0xC83 JUMP JUMPDEST JUMPDEST PUSH2 0xD7D DUP5 DUP3 DUP6 PUSH2 0xD34 JUMP JUMPDEST POP SWAP4 SWAP3 POP POP POP JUMP JUMPDEST PUSH1 0x0 DUP3 PUSH1 0x1F DUP4 ADD SLT PUSH2 0xD9A JUMPI PUSH2 0xD99 PUSH2 0xC7E JUMP JUMPDEST JUMPDEST DUP2 CALLDATALOAD PUSH2 0xDAA DUP5 DUP3 PUSH1 0x20 DUP7 ADD PUSH2 0xD43 JUMP JUMPDEST SWAP2 POP POP SWAP3 SWAP2 POP POP JUMP JUMPDEST PUSH1 0x0 DUP1 PUSH1 0x0 PUSH1 0x60 DUP5 DUP7 SUB SLT ISZERO PUSH2 0xDCC JUMPI PUSH2 0xDCB PUSH2 0x9B6 JUMP JUMPDEST JUMPDEST PUSH1 0x0 DUP5 ADD CALLDATALOAD PUSH8 0xFFFFFFFFFFFFFFFF DUP2 GT ISZERO PUSH2 0xDEA JUMPI PUSH2 0xDE9 PUSH2 0x9BB JUMP JUMPDEST JUMPDEST PUSH2 0xDF6 DUP7 DUP3 DUP8 ADD PUSH2 0xD85 JUMP JUMPDEST SWAP4 POP POP PUSH1 0x20 PUSH2 0xE07 DUP7 DUP3 DUP8 ADD PUSH2 0x9E1 JUMP JUMPDEST SWAP3 POP POP PUSH1 0x40 PUSH2 0xE18 DUP7 DUP3 DUP8 ADD PUSH2 0xA6C JUMP JUMPDEST SWAP2 POP POP SWAP3 POP SWAP3 POP SWAP3 JUMP JUMPDEST PUSH32 0x4E487B7100000000000000000000000000000000000000000000000000000000 PUSH1 0x0 MSTORE PUSH1 0x32 PUSH1 0x4 MSTORE PUSH1 0x24 PUSH1 0x0 REVERT JUMPDEST PUSH32 0x4E487B7100000000000000000000000000000000000000000000000000000000 PUSH1 0x0 MSTORE PUSH1 0x12 PUSH1 0x4 MSTORE PUSH1 0x24 PUSH1 0x0 REVERT JUMPDEST PUSH32 0x4E487B7100000000000000000000000000000000000000000000000000000000 PUSH1 0x0 MSTORE PUSH1 0x11 PUSH1 0x4 MSTORE PUSH1 0x24 PUSH1 0x0 REVERT JUMPDEST PUSH1 0x0 PUSH2 0xEBA DUP3 PUSH2 0x9C0 JUMP JUMPDEST SWAP2 POP PUSH2 0xEC5 DUP4 PUSH2 0x9C0 JUMP JUMPDEST SWAP3 POP DUP3 PUSH2 0xED5 JUMPI PUSH2 0xED4 PUSH2 0xE51 JUMP JUMPDEST JUMPDEST DUP3 DUP3 DIV SWAP1 POP SWAP3 SWAP2 POP POP JUMP JUMPDEST PUSH32 0x4E487B7100000000000000000000000000000000000000000000000000000000 PUSH1 0x0 MSTORE PUSH1 0x22 PUSH1 0x4 MSTORE PUSH1 0x24 PUSH1 0x0 REVERT JUMPDEST PUSH1 0x0 PUSH1 0x2 DUP3 DIV SWAP1 POP PUSH1 0x1 DUP3 AND DUP1 PUSH2 0xF27 JUMPI PUSH1 0x7F DUP3 AND SWAP2 POP JUMPDEST PUSH1 0x20 DUP3 LT DUP2 SUB PUSH2 0xF3A JUMPI PUSH2 0xF39 PUSH2 0xEE0 JUMP JUMPDEST JUMPDEST POP SWAP2 SWAP1 POP JUMP JUMPDEST PUSH1 0x0 PUSH2 0xF4B DUP3 PUSH2 0x9C0 JUMP JUMPDEST SWAP2 POP PUSH32 0xFFFFFFFFFFFFFFFFFFFFFFFFFFFFFFFFFFFFFFFFFFFFFFFFFFFFFFFFFFFFFFFF DUP3 SUB PUSH2 0xF7D JUMPI PUSH2 0xF7C PUSH2 0xE80 JUMP JUMPDEST JUMPDEST PUSH1 0x1 DUP3 ADD SWAP1 POP SWAP2 SWAP1 POP JUMP INVALID LOG2 PUSH5 0x6970667358 0x22 SLT KECCAK256 0x2C PC 0xEA SWAP10 SWAP12 DUP1 0xF 0x28 0xD6 0xF 0xE2 NOT 0xF9 0xC4 0xEA 0xCC 0xA5 EQ 0xFB 0xD7 0x4D 0x22 0xE DUP3 KECCAK256 0xE9 EXP 0xD0 0x4B DELEGATECALL PUSH11 0x9764736F6C634300080D00 CALLER "},"gasEstimates":{"creation":{"codeDepositCost":"806000","executionCost":"infinite","totalCost":"infinite"},"external":{"approveRequest(uint256)":"infinite","approvers(address)":"2868","approversCount()":"2429","contribute()":"53285","createRequest(string,uint256,address)":"infinite","finalizeRequest(uint256)":"infinite","getRequestsCount()":"2490","getSummary()":"infinite","manager()":"2603","minimumContribution()":"2473","numRequests()":"2495","requests(uint256)":"infinite"}},"methodIdentifiers":{"approveRequest(uint256)":"d7d1bbdb","approvers(address)":"0a144391","approversCount()":"82fde093","contribute()":"d7bb99ba","createRequest(string,uint256,address)":"8a9cfd55","finalizeRequest(uint256)":"03441006","getRequestsCount()":"3410452a","getSummary()":"4051ddac","manager()":"481c6a75","minimumContribution()":"937e09b1","numRequests()":"9fb42b1f","requests(uint256)":"81d12c58"}},"storageLayout":{"storage":[{"astId":58,"contract":"Campaign.sol:Campaign","label":"requests","offset":0,"slot":"0","type":"t_array(t_struct(Request)54_storage)dyn_storage"},{"astId":60,"contract":"Campaign.sol:Campaign","label":"manager","offset":0,"slot":"1","type":"t_address"},{"astId":62,"contract":"Campaign.sol:Campaign","label":"minimumContribution","offset":0,"slot":"2","type":"t_uint256"},{"astId":64,"contract":"Campaign.sol:Campaign","label":"numRequests","offset":0,"slot":"3","type":"t_uint256"},{"astId":68,"contract":"Campaign.sol:Campaign","label":"approvers","offset":0,"slot":"4","type":"t_mapping(t_address,t_bool)"},{"astId":70,"contract":"Campaign.sol:Campaign","label":"approversCount","offset":0,"slot":"5","type":"t_uint256"}],"types":{"t_address":{"encoding":"inplace","label":"address","numberOfBytes":"20"},"t_array(t_struct(Request)54_storage)dyn_storage":{"base":"t_struct(Request)54_storage","encoding":"dynamic_array","label":"struct Campaign.Request[]","numberOfBytes":"32"},"t_bool":{"encoding":"inplace","label":"bool","numberOfBytes":"1"},"t_mapping(t_address,t_bool)":{"encoding":"mapping","key":"t_address","label":"mapping(address => bool)","numberOfBytes":"32","value":"t_bool"},"t_string_storage":{"encoding":"bytes","label":"string","numberOfBytes":"32"},"t_struct(Request)54_storage":{"encoding":"inplace","label":"struct Campaign.Request","members":[{"astId":41,"contract":"Campaign.sol:Campaign","label":"description","offset":0,"slot":"0","type":"t_string_storage"},{"astId":43,"contract":"Campaign.sol:Campaign","label":"value","offset":0,"slot":"1","type":"t_uint256"},{"astId":45,"contract":"Campaign.sol:Campaign","label":"recipient","offset":0,"slot":"2","type":"t_address"},{"astId":47,"contract":"Campaign.sol:Campaign","label":"complete","offset":20,"slot":"2","type":"t_bool"},{"astId":49,"contract":"Campaign.sol:Campaign","label":"approvalCount","offset":0,"slot":"3","type":"t_uint256"},{"astId":53,"contract":"Campaign.sol:Campaign","label":"approvals","offset":0,"slot":"4","type":"t_mapping(t_address,t_bool)"}],"numberOfBytes":"160"},"t_uint256":{"encoding":"inplace","label":"uint256","numberOfBytes":"32"}}},"userdoc":{"kind":"user","methods":{},"version":1}}